:100000000C94AA000C94D2000C94D2000C94D20050
:100010000C94D2000C94D2000C94D2000C94D20018
:100020000C94D2000C94D2000C94D2000C94D20008
:100030000C94D2000C94D2000C94D2000C94D200F8
:100040000C94B0100C94D2000C94C8130C94FA13B6
:100050000C94D2000C94D2000C94D2000C94D200D8
:100060000C94830F0C94D2001B07200729072E073E
:10007000330738073D074207036EDB363D9A9999EF
:10008000993DABAAAA2A3E000000803F084AD73B10
:100090003BCE016E84BCBFFDC12F3D6C74319ABD57
:1000A00056833DDA3D00C77F11BED9E4BB4C3E917B
:1000B0006BAAAABE000000803F072C7AA5BA6CC5C7
:1000C00090DA3B9365FC8BBC53F810FD3C56928351
:1000D0004DBD879D3AB63DCBC9BF5BBE73DA0FC934
:1000E0003F05A84CCDB2D44EB93836A9020C50B950
:1000F000918688083CA6AAAA2ABE000000803F007C
:1001000000000008000201000003040700000000D6
:1001100000000000010204081020408001020408D1
:100120001020010204081020040404040404040440
:1001300002020202020203030303030300000000A1
:10014000250028002B0000000000240027002A00C2
:10015000A10E2A1411241FBECFEFD8E0DEBFCDBF01
:1001600011E0A0E0B1E0E2E1F5E302C005900D92FC
:10017000A037B107D9F723E0A0E7B1E001C01D9295
:10018000A637B207E1F711E0C4E5D1E004C0229739
:10019000FE010E94311AC035D107C9F70E946E14C2
:1001A0000C94871A0C94000026E040E052EC61E0C9
:1001B00070E089ED92E00E94661328E630E040E0AE
:1001C00050E063E070E08EE891E00E94130D811131
:1001D00007C064EF71E080E090E00E942911EDCF4C
:1001E00060E08EE891E00E94690D61E08EE891E0A8
:1001F0000E946E0D60E08EE891E00E940E0D8CEF83
:1002000091E00E94EF07811107C064EF71E080E088
:1002100090E00E942911F3CF61E070E08CEF91E053
:100220000E940D0760E070E08CEF91E00E94AC0747
:1002300065E070E08CEF91E00E94BE0763E070E043
:100240008CEF91E00E94D60740E050E060E070E063
:100250008CEF91E00C94E6062F923F924F925F92C2
:100260006F927F928F929F92AF92BF92CF92DF92C6
:10027000EF92FF920F931F93CF93DF93CDB7DEB72B
:10028000EC970FB6F894DEBF0FBECDBF3C0184E201
:10029000EEE0F1E0DE01119601900D928A95E1F712
:1002A0008CE0E2E3F1E0DE01D19601900D928A95B7
:1002B000E1F77E0121E3E20EF11C6E018DE3C80E31
:1002C000D11C83014701F701219131914191519155
:1002D0007F01F80160817181828193810E94811682
:1002E000F80161937193819391938F01EC14FD0454
:1002F00051F71DA21EA21FA218A619A61AA61BA678
:100300001CA61DA61EA61FA618AA8E010B5D1F4FB8
:10031000CE0101965C01F80120803180428053803B
:100320006301E12CF12CF601619171918191919120
:100330006F01F501EE0DFF1D208131814281538156
:100340000E9446199B01AC01B101C2010E948216B4
:10035000F4E0EF0EF11C2CE0E216F10419F01B01A1
:100360002C01E1CFF80161937193819391938F01F7
:10037000FCE0AF0EB11C0815190569F68DA19EA110
:10038000AFA1B8A58093720190937301A0937401FB
:10039000B093750189A59AA5ABA5BCA580937601FC
:1003A00090937701A0937801B09379018DA59EA5D4
:1003B000AFA5B8A980937A0190937B01A0937C01AB
:1003C000B0937D01EC960FB6F894DEBF0FBECDBFA3
:1003D000DF91CF911F910F91FF90EF90DF90CF9021
:1003E000BF90AF909F908F907F906F905F904F9055
:1003F0003F902F9008954F925F926F927F928F92CD
:100400009F92AF92BF92CF92DF92EF92FF920F93A3
:100410001F93CF93DF93CDB7DEB76C970FB6F894E9
:10042000DEBF0FBECDBFE982FA820B831C832D8312
:100430003E834F83588769877A878B879C8789811A
:100440009A81AB81BC81898B9A8BAB8BBC8B898564
:100450009A85AB85BC858D8B9E8BAF8BB88F6BA936
:100460007CA98DA99EA90E94E6164B015C018FA56F
:1004700098A9A9A9BAA9BC01CD0190580E94E61675
:100480006B017C0124E13EEA47E45FE3C501B4016E
:100490000E943B1918160CF4A5C024E13EEA47E47B
:1004A0005FEBC501B4010E945F1787FD9BC024E18B
:1004B0003EEA47E45FE3C701B6010E943B19181604
:1004C0000CF490C024E13EEA47E45FEBC701B601BB
:1004D0000E945F1787FD86C0C501B4010E946317A3
:1004E000698F7A8F8B8F9C8FC501B4010E94A919E7
:1004F0006D877E878F87988BC701B6010E9463172F
:100500002B013C01C701B6010E94A9194B015C01F6
:10051000A301920169897A898B899C890E94461975
:100520006B017C01A50194016D897E898F89988D6D
:100530000E9446199B01AC01C701B6010E948216B8
:100540006B017C012D853E854F85588969897A89A3
:100550008B899C890E944619A50194010E94461925
:100560004B015C012D813E814F815885698D7A8DCB
:100570008B8D9C8D0E9446199B01AC01C501B40175
:100580000E9482164B015C012D853E854F8558895E
:100590006D897E898F89988D0E944619A3019201E9
:1005A0000E9446199B01AC01C501B4010E9481164D
:1005B000A70196016C960FB6F894DEBF0FBECDBFB3
:1005C000DF91CF911F910F91FF90EF90DF90CF902F
:1005D000BF90AF909F908F907F906F905F904F9063
:1005E0000C940C1760E070E08AE794EC6C960FB600
:1005F000F894DEBF0FBECDBFDF91CF911F910F9159
:10060000FF90EF90DF90CF90BF90AF909F908F9032
:100610007F906F905F904F900895CF92DF92EF920E
:10062000FF926B017C0120E030E0A9010E945F177E
:1006300087FF0AC02BED3FE049EC50E4C701B6014B
:100640000E9482166B017C012BED3FE049EC50E4E7
:10065000C701B6010E943B19181654F42BED3FE078
:1006600049EC50E4C701B6010E9481166B017C0180
:10067000C701B601FF90EF90DF90CF900895CF9320
:10068000DF9381E090E0909301018093000160E0AE
:1006900070E0809108010E948C1160E080910C0153
:1006A0000E944D1260E080910A010E944D12C2E04A
:1006B000D1E060E070E088810E948C1161E080915F
:1006C00006010E944D1260E0809104010E944D12CB
:1006D00060918C0170918D018881DF91CF910C9494
:1006E0008C11CF93DF9381E090E090930101809390
:1006F000000160E070E0809108010E948C1160E0D0
:1007000080910C010E944D1260E080910A010E94CC
:100710004D12C2E0D1E060E070E088810E948C114F
:1007200060E0809106010E944D1261E08091040119
:100730000E944D1260918C0170918D018881DF9132
:10074000CF910C948C11CF93DF93109201011092F2
:10075000000160E070E0809102010E948C1160E075
:10076000809106010E944D1260E0809104010E9478
:100770004D12C8E0D1E060E070E088810E948C11E9
:1007800061E080910C010E944D1260E080910A01AD
:100790000E944D1260918C0170918D018881DF91D2
:1007A000CF910C948C11CF93DF9310920101109292
:1007B0000001C8E0D1E060E070E088810E948C1107
:1007C00060E070E0809102010E948C1160E08091F5
:1007D00006010E944D1260E0809104010E944D12BA
:1007E00060E080910C010E944D1261E080910A014D
:1007F0000E944D1260918C0170918D018881DF9172
:10080000CF910C948C114F925F926F927F928F9246
:100810009F92AF92BF92CF92DF92EF92FF920F938F
:100820001F93CF93DF93CDB7DEB7C055D1090FB675
:10083000F894DEBF0FBECDBF0E94FA106EE871E0E3
:10084000CE0185960E949B0A6CEF71E0CE0149961D
:100850000E946A08498C5A8C6B8C7C8C8D8D9E8D85
:10086000AF8DB8A125968CAF9DAFAEAFBFAF25972A
:1008700089A19AA1ABA1BCA121968CAF9DAFAEAFCF
:10088000BFAF21976EE871E0CE010D960E948A09F4
:100890006EE871E0CE0101960E948A09CD80DE806B
:1008A000EF80F88489849A84AB84BC848EE891E0DC
:1008B0000E94B70D29966CAF7DAF8EAF9FAF299781
:1008C00049AA5AAA6BAA7CAA25968CAD9DADAEAD5D
:1008D000BFAD25978DAB9EABAFABB8AF21968CADBE
:1008E0009DADAEADBFAD219789AF9AAFABAFBCAFF9
:1008F000CE01C1960E942C018091720190917301EA
:10090000A0917401B091750121968CAF9DAFAEAFEF
:10091000BFAF21978091760190917701A0917801E6
:10092000B091790125968CAF9DAFAEAFBFAF259743
:1009300080917A0190917B01A0917C01B0917D0121
:100940002D968CAF9DAFAEAFBFAF2D97A70196018F
:10095000C701B6010E9446192B013C01A501940173
:10096000C501B4010E9446199B01AC01C301B2014B
:100970000E9482160E94B3199B01AC0169817A81A1
:100980008B819C810E940C1720E030E044E353E40B
:100990000E94461990582BED3FE049E450E40E9434
:1009A00066172B013C01A5019401C701B6010E9405
:1009B0000C1720E030E044E353E40E9446192BED8D
:1009C0003FE049E450E40E94661761966CAF7DAF4A
:1009D0008EAF9FAF619721962CAD3DAD4EAD5FAD13
:1009E000219725966CAD7DAD8EAD9FAD25970E946C
:1009F0000C174B015C01609388017093890180930F
:100A00008A0190938B0121968CAD9DADAEADBFADAB
:100A10002197898F9A8FAB8FBC8F25968CAD9DAD1A
:100A2000AEADBFAD25978D8F9E8FAF8FB8A32D969E
:100A30008CAD9DADAEADBFAD2D9789A39AA3ABA3F1
:100A4000BCA3ADB7BEB71C970FB6F894BEBF0FBE20
:100A5000ADBF11968CE0FE013D9601900D928A95F6
:100A6000E1F7E98CFA8C0B8D1C8D2D8D3E8D4F8D11
:100A700058A169A17AA18BA19CA10E94FB010FB68C
:100A8000F894DEBF0FBECDBF6B017C0120E030E0EB
:100A90004AE754EC0E945F17882349F0C092840112
:100AA000D0928501E0928601F092870108C0809281
:100AB000840190928501A0928601B092870129E17C
:100AC0003FEE48EE5DE3C501B4010E9482160E942C
:100AD0000D034B015C0129E13FEE48EE5DE36091BF
:100AE00084017091850180918601909187010E9417
:100AF00082160E940D036B017C0120E030E044E38C
:100B000053E4C501B4010E9446192BED3FE049E4CE
:100B100050E40E9466176093880170938901809366
:100B20008A0190938B0120E030E044E353E4C70155
:100B3000B6010E9446192BED3FE049E450E40E94C3
:100B4000661760938401709385018093860190936A
:100B5000870122E030E029964CAD5DAD6EAD7FADF2
:100B6000299789ED92E00E947E166EE371E089ED8F
:100B700092E00E94BB1440918801509189016091DC
:100B80008A0170918B0122E030E089ED92E00E94B1
:100B90007E166EE371E089ED92E00E94BB1422E0C4
:100BA00030E0B301A20189ED92E00E947E166EE36F
:100BB00071E089ED92E00E94BB1422E030E0619682
:100BC0004CAD5DAD6EAD7FAD619789ED92E00E9459
:100BD0007E166EE371E089ED92E00E94BB14609195
:100BE0000001709101014AE050E089ED92E00E941D
:100BF0007B15C05BDF4F0FB6F894DEBF0FBECDBFD5
:100C0000DF91CF911F910F91FF90EF90DF90CF90E8
:100C1000BF90AF909F908F907F906F905F904F901C
:100C20000895CF92DF92EF92FF920F931F93CF938D
:100C3000DF93CDB7DEB7C456D1090FB6F894DEBF47
:100C40000FBECDBF89ED92E00E948312892BE1F1A6
:100C500064E670E080E090E00E942911CE010196E8
:100C60007C0100E010E06C0189ED92E00E948312AB
:100C7000892B19F003361105E9F5F601E00FF11F94
:100C8000108260E471E0C6010E94531A0E94351A76
:100C9000909383018093820160E471E080E090E0B2
:100CA0000E94531A0E94351A90938101809380010B
:100CB00060E471E080E090E00E94531A0E94351ACF
:100CC00090937F0180937E016AE070E080E090E085
:100CD0000E942911CC59DF4F0FB6F894DEBF0FBE2A
:100CE000CDBFDF91CF911F910F91FF90EF90DF90DB
:100CF000CF9008950F5F1F4F89ED92E00E949C12E4
:100D0000F70181937F01B0CF0E9403040E94110676
:100D100080917E0190917F0190938D0180938C0151
:100D2000892B39F560E0809106010E944D1260E048
:100D3000809104010E944D1260E080910C010E949C
:100D40004D1260E080910A010E944D1260E070E057
:100D5000809102010E948C1160E070E08091080196
:100D60000E948C1182E090E0909301018093000139
:100D700008958091820190918301892B81F4809163
:100D8000800190918101892B11F40E94D3038091FD
:100D9000800190918101019711F40E94A303809139
:100DA000820190918301019781F48091800190915B
:100DB0008101892B11F40E9471038091800190912F
:100DC0008101019711F40C943F030895FC01718B8C
:100DD000608B538B428B08951F93CF93DF931F92A9
:100DE000CDB7DEB7162F6EE170E080E192E0498367
:100DF0000E94890E612F80E192E00E94260E4981B7
:100E0000642F80E192E00E94260E80E192E00F9034
:100E1000DF91CF911F910C949E0E0F931F93CF9350
:100E2000DF93EC0168307105A8F5CB018C5C9F4F16
:100E3000FC010C942F1A86E091E8A5E9BDE304C0FB
:100E40008FE195E8ABE6BFE388839983AA83BB83F0
:100E500021C086EF98E2ACE9BFE3F6CF8CE59FE8CE
:100E6000A2ECBFE3F1CF8EEA97E4A1E1B0E4ECCFCE
:100E70000AE017ED23E230E409C005E81BEE21E4A7
:100E800030E404C003E313E32BE830E40883198360
:100E90002A833B83462F4295440F407E61E0CE017A
:100EA000DF91CF911F910F910C94EC06CF93C62F39
:100EB0006EE170E080E192E00E94890E6C2F80E18B
:100EC00092E00E94260E80E192E00E949E0E41E098
:100ED00050E06EE170E080E192E00E947C0E80E1E3
:100EE00092E00E94D60DC82F80E192E00E949E0EF3
:100EF0008C2FCF910895CF93C62F6EE170E080E1E3
:100F000092E00E94890E6C2F80E192E00E94260EF2
:100F100080E192E00E949E0E6EE170E080E192E03E
:100F20000E94890E41E050E06EE170E080E192E0C5
:100F30000E947C0E80E192E00E94CE0D892BD1F3BD
:100F400080E192E00E94D60DC82F80E192E00E94DD
:100F50009E0E8C2FCF9108951F93CF93DF93EC01BA
:100F6000162F62E00E947B07482F4C7F412B62E0E6
:100F7000CE01DF91CF911F910C94EC060F931F933C
:100F8000CF93DF93EC018B0160E00E947B07482F39
:100F9000437E000F111F000F111F402B60E0CE0198
:100FA000DF91CF911F910F910C94EC060F931F933B
:100FB000CF93DF93EC018B0160E00E947B07482F09
:100FC0004F7955E0000F111F5A95E1F7402B60E073
:100FD000CE01DF91CF911F910F910C94EC06CF932E
:100FE000DF93EC0180E192E00E94650E6AE0CE01A1
:100FF0000E945607883451F56BE0CE010E945607D7
:10100000843321F56CE0CE010E9456078333F1F45E
:1010100061E070E0CE010E940D0760E070E0CE015B
:101020000E94AC0764E070E0CE010E94BE0760E061
:1010300070E0CE010E94D6074FE155E86BE67FE3F2
:10104000488359836A837B8381E001C080E0DF911C
:10105000CF9108950F931F93CF93DF93162F6EE1D7
:1010600070E080E192E00E94890E612F80E192E0C1
:101070000E94260E80E192E00E949E0E6EE170E0DA
:1010800080E192E00E94890E42E050E06EE170E063
:1010900080E192E00E947C0E80E192E00E94CE0D01
:1010A000892BD1F380E192E00E94D60D082F80E1D8
:1010B00092E00E94D60D182F80E192E00E949E0ED1
:1010C000D02F80E0C82FCE01812BDF91CF911F91CF
:1010D0000F910895CF92DF92EF92FF920F931F939B
:1010E000CF93DF938C01EB0163E0CE010E942A08CD
:1010F000BC01882777FD8095982F0E9401186B010D
:101100007C0168897989882777FD8095982F0E94CE
:1011100001189B01AC01C701B6010E94811628810C
:1011200039814A815B810E9446196C837D838E835D
:101130009F8367E0CE010E942A08BC01882777FDC3
:101140008095982F0E9401186B017C016A897B8928
:10115000882777FD8095982F0E9401189B01AC018C
:10116000C701B6010E948116288139814A815B81BD
:101170000E944619688779878A879B8765E0CE0138
:101180000E942A08BC01882777FD8095982F0E942D
:101190000118288139814A815B810E9446196C8738
:1011A0007D878E879F878CE0FE013496D801019061
:1011B0000D928A95E1F7C801DF91CF911F910F91B0
:1011C000FF90EF90DF90CF900895DC01ED91FC91BE
:1011D0000190F081E02D09944F925F926F927F927F
:1011E0008F929F92AF92BF92CF92DF92EF92FF9237
:1011F0000F931F93CF93DF938C01EB014B018CE690
:10120000880E911CF4016081718180E192E00E945E
:10121000890E6BE370E080E192E00E94E50880E1D6
:1012200092E00E949E0EF4016081718180E192E063
:101230000E94890EF4016081718146E050E080E1F6
:1012400092E00E947C0E80E192E00E94CE0D069713
:10125000D4F380E192E00E94D60D482E80E192E026
:101260000E94D60D582E80E192E00E94D60D682E85
:1012700080E192E00E94D60D782E80E192E00E94FB
:10128000D60D882E80E192E00E94D60D982EB42CC7
:10129000A12CA528B501882777FD8095982F0E945D
:1012A0000118688379838A839B83D62CC12CC72835
:1012B000B601882777FD8095982F0E9401186C83CE
:1012C0007D838E839F83F82CE12CE928B701882742
:1012D00077FD8095982F0E940118688779878A8703
:1012E0009B878CE0FE01D80101900D928A95E1F771
:1012F000C801DF91CF911F910F91FF90EF90DF9088
:10130000CF90BF90AF909F908F907F906F905F90A5
:101310004F900895AF92BF92CF92DF92EF92FF92DB
:101320000F931F93CF93DF93CDB7DEB72C970FB6F4
:10133000F894DEBF0FBECDBF5C018B01CE010196DC
:101340000E94EC08F801ED59FF4FC080D180E28087
:10135000F380F8012081318142815381C701B601B8
:101360000E9446192AE038EE4CE151E40E944619E9
:10137000F801608F718F828F938F24813581468130
:101380005781C701B6010E9446192AE038EE4CE1A8
:1013900051E40E944619F801648F758F868F978FEC
:1013A0002085318542855385C701B6010E944619C3
:1013B0002AE038EE4CE151E40E944619F80160A39E
:1013C00071A382A393A38CE07896D50101900D922E
:1013D0008A95E1F7C5012C960FB6F894DEBF0FBED3
:1013E000CDBFDF91CF911F910F91FF90EF90DF90D4
:1013F000CF90BF90AF9008954F925F926F927F927F
:101400008F929F92AF92BF92CF92DF92EF92FF9214
:101410000F931F93CF93DF938C01EB014B018CE66D
:10142000880E911CF4016081718180E192E00E943C
:10143000890E63E470E080E192E00E94E50880E1BB
:1014400092E00E949E0EF4016081718180E192E041
:101450000E94890EF4016081718146E050E080E1D4
:1014600092E00E947C0E80E192E00E94CE0D0697F1
:10147000D4F380E192E00E94D60D482E80E192E004
:101480000E94D60D582E80E192E00E94D60D682E63
:1014900080E192E00E94D60D782E80E192E00E94D9
:1014A000D60D882E80E192E00E94D60D982EB42CA5
:1014B000A12CA528B501882777FD8095982F0E943B
:1014C00001186C877D878E879F87D62CC12CC728F3
:1014D000B601882777FD8095982F0E940118688BA8
:1014E000798B8A8B9B8BF82CE12CE928B701882714
:1014F00077FD8095982F0E9401186C8B7D8B8E8BC9
:101500009F8B8CE0FE013C96D80101900D928A954C
:10151000E1F7C801DF91CF911F910F91FF90EF90FC
:10152000DF90CF90BF90AF909F908F907F906F9003
:101530005F904F900895AF92BF92CF92DF92EF925B
:10154000FF920F931F93CF93DF93CDB7DEB72C9706
:101550000FB6F894DEBF0FBECDBF5C018B01CE018C
:1015600001960E94FC09F801E559FF4F80813C97E4
:10157000C080D180E280F3808823D1F1F80124ADCE
:1015800035AD46AD57AD64857585868597850E94D6
:101590008116A70196010E944619F80164A375A35C
:1015A00086A397A3E05CFF4F208131814281538164
:1015B000F80160897189828993890E948116A70147
:1015C00096010E944619F80160A771A782A793A708
:1015D000EC5BFF4F2081318142815381F8016489A6
:1015E0007589868997890E948116A701960121C075
:1015F000A7019601F80164857585868597850E9407
:101600004619F80164A375A386A397A3A7019601C1
:1016100060897189828993890E944619F80160A7BF
:1016200071A782A793A7A701960164897589868906
:1016300097890E944619F80164A775A786A797A7FE
:1016400020E030E0A901F801E959FF4F6081718184
:10165000828193810E945F17882309F466C0F80194
:10166000C4A0D5A0E6A0F7A020E030E0A901C70102
:10167000B6010E943B19181624F0C701B601905814
:1016800002C0C701B601F80120A931A942A953A996
:101690000E945F1787FF05C0F80114A215A216A2C9
:1016A00017A2F801C0A4D1A4E2A4F3A420E030E082
:1016B000A901C701B6010E943B19181624F0C70101
:1016C000B601905802C0C701B601F80124A935A996
:1016D00046A957A90E945F1787FF05C0F80110A609
:1016E00011A612A613A6F801C4A4D5A4E6A4F7A4D3
:1016F00020E030E0A901C701B6010E943B1918168D
:1017000024F0C701B601905802C0C701B601F80124
:1017100020AD31AD42AD53AD0E945F1787FF05C0CC
:10172000F80114A615A616A617A68CE0F801B49623
:10173000D50101900D928A95E1F7C5012C960FB65F
:10174000F894DEBF0FBECDBFDF91CF911F910F91F7
:10175000FF90EF90DF90CF90BF90AF9008951F93D0
:10176000CF93DF93162FEC01C459DF4F6881798145
:1017700080E192E00E94890E612F80E192E00E9458
:10178000260E80E192E00E949E0E6881798180E1C0
:1017900092E00E94890E6881798141E050E080E109
:1017A00092E00E947C0E80E192E00E94D60DC82F4C
:1017B00080E192E00E949E0E8C2FDF91CF911F91CD
:1017C00008951F93CF93DF93162FEC01C459DF4F79
:1017D0006881798180E192E00E94890E612F80E129
:1017E00092E00E94260E80E192E00E949E0E6881A7
:1017F000798180E192E00E94890E6881798141E0DF
:1018000050E080E192E00E947C0E80E192E00E9434
:10181000CE0D892BD1F380E192E00E94D60DC82F26
:1018200080E192E00E949E0E8C2FDF91CF911F915C
:1018300008951F93CF93DF931F92CDB7DEB7162F76
:1018400084599F4FFC016081718180E192E049835E
:101850000E94890E612F80E192E00E94260E49814C
:10186000642F80E192E00E94260E80E192E00F90CA
:10187000DF91CF911F910C949E0E0F931F93CF93E6
:10188000DF93EC018B0161307105A1F044F4611527
:10189000710539F58FE39EE1AAEFBBE30FC062301B
:1018A0007105A1F063307105E1F44CEE50EC69E78D
:1018B0007DE310C080E792E2AAE7BCE3FE01E15AB3
:1018C000FF4F80839183A283B3830BC04FED5FEB07
:1018D00069EF7CE3FE01E15AFF4F4083518362834D
:1018E00073836BE1CE010E94E10B482F477E53E0EA
:1018F000000F111F5A95E1F7402B6BE1CE01DF91EC
:10190000CF911F910F910C94190C0F931F93CF93AC
:10191000DF93EC018B0161307105A1F044F4611596
:10192000710539F580E49AEDAFE7B8E30FC0623096
:101930007105A1F063307105E1F448E155EF6FEFF7
:1019400079E310C080E49AEDAFEFB8E3FE01ED5902
:10195000FF4F80839183A283B3830BC040E45AED91
:101960006FE779E3FE01ED59FF4F408351836283B6
:1019700073836CE1CE010E94E10B482F477E63E048
:10198000000F111F6A95E1F7402B6CE1CE01DF914A
:10199000CF911F910F910C94190C1F93CF93DF934C
:1019A000EC01162F6BE60E94E10B482F487F412B7C
:1019B0006BE6CE01DF91CF911F910C94190CEF9241
:1019C000FF921F93CF93DF9300D0CDB7DEB77C019A
:1019D000162F2A8349830E94E10B2A814981222301
:1019E00049F021E030E001C0220F4A95EAF7482F84
:1019F000422B09C021E030E001C0220F4A95EAF7EE
:101A0000422F40954823612FC7010F900F90DF911F
:101A1000CF911F91FF90EF900C94190C262F46E068
:101A20006BE60C94DF0CEF92FF920F931F93CF9312
:101A3000DF93EC018B017A01FC01E459FF4F318304
:101A4000208380E192E00E94650E1CAE1DAE1EAEAA
:101A50001FAEFE01E05CFF4F1082118212821382E2
:101A600034961082118212821382B796108218AABD
:101A700019AA1AAA1BAA1CAA1DAA1EAA1FAA18AE36
:101A800019AE1AAE1BAE34971082118212821382E5
:101A900065E7CE010E94AF0B883699F461E070E0F3
:101AA000CE010E94CD0CB801CE010E943D0CB701C1
:101AB000CE010E94850C60E0CE010E940E0D81E0F7
:101AC00001C080E0DF91CF911F910F91FF90EF90C7
:101AD0000895262F45E06AE60C94DF0C262F41E09E
:101AE00067E30C94DF0CFF920F931F93CF93DF9368
:101AF000F62EEC01C459DF4F6881798180E192E0D4
:101B00000E94890E6F2D80E192E00E94260E80E1F6
:101B100092E00E949E0E6881798180E192E00E94AD
:101B2000890E6881798142E050E080E192E00E9474
:101B30007C0E80E192E00E94CE0D892BD1F380E1F2
:101B400092E00E94D60DD82F80E192E00E94D60D3F
:101B5000C82F80E192E00E949E0E1D2F00E0C80178
:101B60008C2BDF91CF911F910F91FF90089561E42D
:101B70000E94730DBC01882777FD8095982F0E94E5
:101B8000011820E030E04AEA53E40E94661728EB8F
:101B90003EE142E152E40E948216089580914002A3
:101BA00090E020914102821B910908952091410209
:101BB00080914002281750F4E22FF0E0EE5BFD4FD9
:101BC000808190E02F5F2093410208958FEF9FEF77
:101BD0000895E091410280914002E81730F4F0E06E
:101BE000EE5BFD4F808190E008958FEF9FEF0895A9
:101BF0000895CF92DF92EF92FF920F931F93CF93AE
:101C0000DF937C01CB018A0120911C02222389F001
:101C1000EB016B01C40ED51ECC15DD0569F0699191
:101C2000D701ED91FC910190F081E02DC70109955C
:101C3000F3CF642F0E945A0FC801DF91CF911F91FB
:101C40000F91FF90EF90DF90CF900895CF93DF93A7
:101C50001F92CDB7DEB7698320911C022223D1F0F9
:101C600020911D02203240F021E030E0FC0133835E
:101C7000228380E090E015C080911E02E82FF0E002
:101C8000E15EFD4F998190838F5F80931E02809368
:101C90001D0205C061E0CE0101960E945A0F81E04D
:101CA00090E00F90DF91CF910895FC011382128292
:101CB00048EE53E060E070E04483558366837783A9
:101CC00086E491E0918380830895109241021092FE
:101CD000400210921E0210921D020C94A50E862F37
:101CE000413208F040E262E472E00E94C30E1092BA
:101CF000410280934002089521E00C946F0E81E030
:101D000080931C0260933F0210921E0210921D02EB
:101D100008950C947F0E0F93062F21E040911D0231
:101D20006FE172E080913F020E94070F10921E0245
:101D300010921D0210921C020F91089561E00C9404
:101D40008B0E80E192E00C94550E1092CF0281E050
:101D50008093CD021092CC0261E082E10E944D128C
:101D600061E083E10E944D12E9EBF0E080818E7F1B
:101D7000808380818D7F808388E48093B80085E4B0
:101D80008093BC000895413208F03FC09091CF028B
:101D90009111FCCF91E09093CF022093CD022FEFD1
:101DA000209362021092A702240F2093A602909320
:101DB000CE029091CE02880F892B8093CE02809123
:101DC000CC02813041F41092CC028091CE028093FB
:101DD000BB0085EC01C085EE8093BC008091CF02F2
:101DE0008130E1F38091A702841710F44091A7029B
:101DF00028EA32E0FB01D9018A2F821B841718F4EC
:101E00008D918193F9CF842F089580E008950F93E9
:101E1000413208F046C09091CF029111FCCF92E080
:101E20009093CF020093CD029FEF909362021092A5
:101E3000A7024093A602FB0168EA72E0DB019A2F39
:101E4000961B941718F491919D93F9CF1092CE029E
:101E50009091CE02880F892B8093CE028091CC0284
:101E6000813041F41092CC028091CE028093BB006D
:101E700085EC01C085EE8093BC00222321F0809187
:101E8000CF028230E1F3809162028F3F61F0809156
:101E90006202803251F080916202803341F483E02B
:101EA00007C081E005C080E003C082E001C084E09B
:101EB0000F910895613298F42091CF02243089F473
:101EC00060938402FC0186E892E0DC012A2F281B43
:101ED000261718F421912D93F9CF80E0089581E021
:101EE000089582E0089585ED8093BC008091BC0048
:101EF00084FDFCCF1092CF02089585EC8093BC0046
:101F00001092CF0208951F920F920FB60F921124D4
:101F10002F933F934F935F936F937F938F939F93F1
:101F2000AF93BF93EF93FF938091B900887F803682
:101F300009F49CC068F5883209F45BC090F48031E4
:101F400009F454C038F4882309F4F5C0883009F442
:101F50004DC0F5C0883109F44CC0803209F45DC031
:101F6000EEC0803409F468C048F4803309F455C0E9
:101F7000883309F0E4C080936202A8C0803509F478
:101F80004FC0883509F45DC0883409F0D8C0D5C089
:101F9000883909F4C6C0A8F4883709F467C038F452
:101FA000883609F463C0803709F460C0C8C0883837
:101FB00009F4B7C0803909F45FC0803809F0BFC0A8
:101FC0005BC0803B09F485C038F4803A09F466C0F0
:101FD000883A09F47EC0B3C0803C09F4A6C0883CAE
:101FE00009F4A3C0883B09F489C0A9C08091CE023E
:101FF00010C09091A7028091A602981770F5E09109
:10200000A70281E08E0F8093A702F0E0E855FD4F14
:1020100080818093BB0085EC85C0809362028DC077
:10202000E091A70281E08E0F8093A7028091BB0010
:10203000F0E0E855FD4F80839091A7028091A602C1
:102040006DC0E091A70281E08E0F8093A70280917E
:10205000BB00F0E0E855FD4F80838091CD028111F7
:102060006CC081E08093CC0284EA60C083E08093FE
:10207000CF0210926302CFCF80916302803208F0CA
:1020800050C0E091630281E08E0F809363028091E3
:10209000BB00F0E0EC59FD4F8083BDCF809163021F
:1020A000803230F4E0916302F0E0EC59FD4F108291
:1020B0000E94730F6091630270E0E091C802F0919A
:1020C000C90284E692E00995109263020E947D0F96
:1020D00036C084E08093CF02109285021092840271
:1020E000E091CA02F091CB0209958091840281119E
:1020F00005C081E08093840210928602E0918502FF
:1021000081E08E0F80938502F0E0EA57FD4F8081D9
:102110008093BB009091850280918402981708F407
:102120007ACF85E88093BC000AC085EC8093BC0020
:102130001092CF0204C0109262020E94730FFF91AE
:10214000EF91BF91AF919F918F917F916F915F912F
:102150004F913F912F910F900FBE0F901F901895A8
:102160001F920F920FB60F9211242F933F938F93CC
:102170009F93AF93BF938091D1029091D202A0918F
:10218000D302B091D4023091D00223E0230F2D3737
:1021900020F40196A11DB11D05C026E8230F02966B
:1021A000A11DB11D2093D0028093D1029093D20241
:1021B000A093D302B093D4028091D5029091D6021D
:1021C000A091D702B091D8020196A11DB11D8093B4
:1021D000D5029093D602A093D702B093D802BF91B4
:1021E000AF919F918F913F912F910F900FBE0F90C4
:1021F0001F9018952FB7F8946091D1027091D20278
:102200008091D3029091D4022FBF08953FB7F894E4
:102210008091D5029091D602A091D702B091D802B8
:1022200026B5A89B05C02F3F19F00196A11DB11D31
:102230003FBF6627782F892F9A2F620F711D811D4E
:10224000911D42E0660F771F881F991F4A95D1F7AD
:102250000895CF92DF92EF92FF92CF93DF936B01BD
:102260007C010E940611EB01C114D104E104F104C8
:1022700089F00E9480160E9406116C1B7D0B683E3F
:10228000734090F381E0C81AD108E108F108C85101
:10229000DC4FEACFDF91CF91FF90EF90DF90CF90AE
:1022A0000895789484B5826084BD84B5816084BDCE
:1022B00085B5826085BD85B5816085BDEEE6F0E0BF
:1022C000808181608083E1E8F0E01082808182601B
:1022D0008083808181608083E0E8F0E0808181609C
:1022E0008083E1EBF0E0808184608083E0EBF0E0CC
:1022F000808181608083EAE7F0E080818460808370
:102300008081826080838081816080838081806819
:1023100080831092C10008951F93CF93DF93182FED
:10232000EB0161E00E941412209711F460E004C0F8
:10233000CF3FD10539F461E0812FDF91CF911F911B
:102340000C944D12E12FF0E0E050FF4FE491E330A8
:10235000F9F048F4E130B9F0E230A1F584B58062DB
:1023600084BDC8BD34C0E730E9F0E83019F1E4308D
:1023700049F580918000806280938000D0938B002B
:10238000C0938A0024C084B5806884BDC7BD1FC0C7
:1023900080918000806880938000D0938900C093F2
:1023A000880015C08091B00080688093B000C09311
:1023B000B3000DC08091B00080628093B000C093E4
:1023C000B40005C0C038D1050CF0B5CFAFCFDF9158
:1023D000CF911F910895833081F028F4813099F0D6
:1023E0008230A1F008958730A9F08830B9F08430A8
:1023F000D1F4809180008F7D03C0809180008F7721
:1024000080938000089584B58F7702C084B58F7D56
:1024100084BD08958091B0008F7703C08091B00093
:102420008F7D8093B0000895CF93DF9390E0FC01FF
:10243000EC5EFE4F2491FC01E85DFE4F8491882301
:1024400049F190E0880F991FFC01EA5BFE4FA591CE
:10245000B491845C9E4FFC01C591D4919FB76111EA
:1024600008C0F8948C91209582238C9388818223D4
:102470000AC0623051F4F8948C91322F3095832346
:102480008C938881822B888304C0F8948C91822B52
:102490008C939FBFDF91CF9108950F931F93CF939C
:1024A000DF931F92CDB7DEB7282F30E0F901E0505F
:1024B000FF4F8491F901EC5EFE4F1491F901E85D44
:1024C000FE4F04910023C9F0882321F069830E9404
:1024D000EB116981E02FF0E0EE0FFF1FE45CFE4F8F
:1024E000A591B4919FB7F8948C91611103C0109598
:1024F000812301C0812B8C939FBF0F90DF91CF91DF
:102500001F910F910895FC01818D228D90E0805CD8
:102510009F4F821B91098F7399270895FC01918D1C
:10252000828D981731F0828DE80FF11D858D90E036
:1025300008958FEF9FEF0895FC01918D828D98177C
:1025400061F0828DDF01A80FB11D5D968C91928D97
:102550009F5F9F73928F90E008958FEF9FEF089594
:1025600080E294E1892B49F080E090E0892B29F00A
:102570000E94201481110C9400000895FC01848DA8
:10258000DF01A80FB11DA35ABF4F2C91848D90E09D
:1025900001968F739927848FA689B7892C93A08978
:1025A000B1898C9180648C93938D848D981306C02F
:1025B0000288F389E02D80818F7D80830895CF93F9
:1025C000DF93EC01888D8823C9F0EA89FB8980813B
:1025D00085FD05C0A889B9898C9186FD0FC00FB60D
:1025E00007FCF5CF808185FFF2CFA889B9898C914E
:1025F00085FFEDCFCE010E94BE12E7CFDF91CF91D4
:102600000895CF92DF92FF920F931F93CF93DF93A2
:102610001F92CDB7DEB76C01DC015B969C915B9796
:102620005C968C915C97981307C05096ED91FC9145
:102630005197808185FD32C0F601038D10E00F5F58
:102640001F4F0F731127F02EF601848DF81211C061
:102650000FB607FCF9CFD6015096ED91FC9151973A
:10266000808185FFF1CFC60169830E94BE12698116
:10267000EBCF838DE80FF11DE35AFF4F6083D60146
:102680005B960C935B975296ED91FC9153978081EA
:102690008062808381E058968C930DC0D601569657
:1026A000ED91FC91579760835096ED91FC91519775
:1026B00080818064808381E090E00F90DF91CF91F2
:1026C0001F910F91FF90DF90CF900895BF92CF920E
:1026D000DF92EF92FF92CF93DF93EC016A017B01CF
:1026E000B22EE889F98982E08083411581EE58078E
:1026F00061057105A1F060E079E08DE390E0A7014C
:1027000096010E940D1A215031094109510956952F
:10271000479537952795211580E1380798F0E88986
:10272000F989108260E874E88EE190E0A7019601D3
:102730000E940D1A215031094109510956954795BA
:1027400037952795EC85FD853083EE85FF852083C1
:10275000188EEC89FD89B082EA89FB8980818061CD
:102760008083EA89FB89808188608083EA89FB898C
:10277000808180688083EA89FB8980818F7D808366
:10278000DF91CF91FF90EF90DF90CF90BF900895B1
:102790001F920F920FB60F9211242F938F939F9336
:1027A000EF93FF93E091E902F091EA028081E091DA
:1027B000EF02F091F00282FD12C090818091F2024E
:1027C0008F5F8F732091F302821751F0E091F20234
:1027D000F0E0E752FD4F958F8093F20201C08081B7
:1027E000FF91EF919F918F912F910F900FBE0F90BE
:1027F0001F9018951F920F920FB60F9211242F93CE
:102800003F934F935F936F937F938F939F93AF9378
:10281000BF93EF93FF9389ED92E00E94BE12FF9168
:10282000EF91BF91AF919F918F917F916F915F9148
:102830004F913F912F910F900FBE0F901F901895C1
:1028400089ED92E00E94831221E0892B09F420E0B7
:10285000822F08951092DC021092DB0288EE93E042
:10286000A0E0B0E08093DD029093DE02A093DF024F
:10287000B093E00286E591E09093DA028093D9026A
:1028800085EC90E09093E6028093E50284EC90E082
:102890009093E8028093E70280EC90E09093EA0244
:1028A0008093E90281EC90E09093EC028093EB023C
:1028B00082EC90E09093EE028093ED0286EC90E043
:1028C0009093F0028093EF021092F2021092F302C2
:1028D0001092F4021092F502089508950E94511189
:1028E0000E946D140E94D400C0EBD2E10E948406C5
:1028F0002097E1F30E94B012F9CFCF92DF92EF92CE
:10290000FF920F931F93CF93DF936C017A01EB013A
:10291000E60EF71E00E010E0CE15DF0561F06991CC
:10292000D601ED91FC910190F081E02DC601099551
:10293000080F191FF1CFC801DF91CF911F910F919F
:10294000FF90EF90DF90CF9008956115710581F0B1
:10295000DB010D900020E9F7AD0141505109461B04
:10296000570BDC01ED91FC910280F381E02D09947D
:1029700080E090E008950C94A514DC01ED91FC91A9
:102980000190F081E02D09940F931F93CF93DF9373
:10299000EC016DE00E94BD148C016AE0CE010E9442
:1029A000BD14800F911FDF91CF911F910F9108955A
:1029B0008F929F92AF92BF92CF92DF92EF92FF924F
:1029C0000F931F93CF93DF93CDB7DEB7A1970FB6C9
:1029D000F894DEBF0FBECDBF7C01C42EE52FCB0126
:1029E000D22E19A221E02D1510F02AE0D22E8E0150
:1029F0000F5D1F4F8D2C912CA12CB12C6C2D7E2F97
:102A0000A50194010E940D1A8C2DD29E80191124CB
:102A1000015011098A3014F4805D01C0895CF8010D
:102A20008083211531054105510521F0C22EE32F88
:102A3000CA01E4CFB801C7010E94A514A1960FB640
:102A4000F894DEBF0FBECDBFDF91CF911F910F91E4
:102A5000FF90EF90DF90CF90BF90AF909F908F90BE
:102A60000895CF92DF92EF92FF920F931F93CF932F
:102A7000DF93EC016A017B012115310579F4E881CE
:102A8000F9810190F081E02D642FDF91CF911F91AA
:102A90000F91FF90EF90DF90CF9009942A3031058D
:102AA000E9F477FF1AC06DE20E94BD148C0144273F
:102AB0005527BA014C195D096E097F092AE0CE013C
:102AC0000E94D814800F911FDF91CF911F910F9119
:102AD000FF90EF90DF90CF9008952AE0B701A60114
:102AE000CE01DF91CF911F910F91FF90EF90DF907A
:102AF000CF900C94D8140F931F93CF93DF93EC01D6
:102B00009A01AB01662757FD6095762F0E9431151B
:102B10008C01CE010E94C414800F911FDF91CF91D0
:102B20001F910F9108954F925F926F927F928F92B3
:102B30009F92AF92BF92CF92DF92EF92FF920F934C
:102B40001F93CF93DF93EC016A017B01B22E9A01B0
:102B5000AB01C701B6010E94F419882319F062E69F
:102B600071E027C026013701E89477F82FEF3FEF97
:102B70004FE75FE7C301B2010E94F41981110DC054
:102B80002FEF3FEF4FE75FE7C301B2010E945F17EE
:102B900018161CF466E671E00CC02FEF3FEF4FE70C
:102BA0005FE4C701B6010E943B191816ACF46AE64F
:102BB00071E0CE01DF91CF911F910F91FF90EF90C7
:102BC000DF90CF90BF90AF909F908F907F906F904D
:102BD0005F904F900C94A5142FEF3FEF4FE75FEC01
:102BE000C701B6010E945F1787FDE1CF20E030E00A
:102BF000A901C701B6010E945F1787FF0AC06DE2F5
:102C0000CE010E94BD148C01F7FAF094F7F8F0940D
:102C100002C000E010E0A12C60E070E080E09FE3E3
:102C2000AB1441F020E030E040E251E40E9466172E
:102C3000A394F6CF9B01AC01C701B6010E94821696
:102C40006B017C010E94D3172B013C010E94FF17EE
:102C50009B01AC01C701B6010E9481166B017C018A
:102C60002AE0B301A201CE010E94D814080F191F57
:102C7000BB2039F06EE671E0CE010E94A514080F6A
:102C8000191F7B2C772041F120E030E040E251E435
:102C9000C701B6010E9446196B017C010E94CE1744
:102CA0004B01AA2497FCA094BA2C2AE030E0B5018D
:102CB000A401CE010E943115080F191FC501B401EE
:102CC0000E9401189B01AC01C701B6010E94811648
:102CD0006B017C017A94D6CFC801DF91CF911F910F
:102CE0000F91FF90EF90DF90CF90BF90AF909F90AB
:102CF0008F907F906F905F904F9008950C949315F4
:102D000008955058BB27AA270ED06AC233D230F09C
:102D100038D220F031F49F3F11F41EF4F2C10EF4CA
:102D2000E095E7FBE8C1E92F7DD280F3BA1762078F
:102D300073078407950718F071F49EF595C20EF499
:102D4000E0950B2EBA2FA02D0B01B90190010C01BB
:102D5000CA01A0011124FF27591B99F0593F50F4D3
:102D6000503E68F11A16F040A22F232F342F44272B
:102D7000585FF3CF469537952795A795F040539523
:102D8000C9F77EF41F16BA0B620B730B840BBAF0F3
:102D90009150A1F0FF0FBB1F661F771F881FC2F75E
:102DA0000EC0BA0F621F731F841F48F48795779572
:102DB0006795B795F7959E3F08F0B3CF9395880F29
:102DC00008F09927EE0F9795879508959F939F7721
:102DD000EEE389379E0720F4E8E7F0E0BAD109C0B6
:102DE0004BD19058A2EA2AED3FE049EC5FE39BDF2C
:102DF000F7D10F9007FC90580895BCD158F080E8A7
:102E000091E009F49EEFBDD128F040E851E059F47B
:102E10005EEF09C076C128C2E92FE07803D268F3DB
:102E2000092E052AC1F3261737074807590738F036
:102E30000E2E07F8E02569F0E025E0640AC0EF6394
:102E400007F8009407FADB01B9019D01DC01CA0112
:102E5000AD01EF934AD0C4D10AD05F91552331F030
:102E60002BED3FE049E450FD49EC4CCF0895DF9352
:102E7000DD27B92FBF7740E85FE31616170648072E
:102E80005B0710F4D92FFBD19F938F937F936F93A0
:102E9000A8D2ECE8F0E038D1A3D12F913F914F9127
:102EA0005F9100D2DD2349F09058A2EA2AED3FE07D
:102EB00049EC5FE3D0785D2736DFDF9191C1F7D031
:102EC00008F481E0089565D1E3959BC10CD088C1D9
:102ED00058D140F04FD130F021F45F3F19F00BC1D1
:102EE0005111C3C10EC19ED198F39923C9F3552343
:102EF000B1F3951B550BBB27AA27621773078407ED
:102F000038F09F5F5F4F220F331F441FAA1FA9F3A2
:102F100033D00E2E3AF0E0E830D091505040E69594
:102F2000001CCAF729D0FE2F27D0660F771F881FF5
:102F3000BB1F261737074807AB07B0E809F0BB0BE4
:102F4000802DBF01FF2793585F4F2AF09E3F510508
:102F500068F0D1C08AC15F3FECF3983EDCF3869500
:102F600077956795B795F7959F5FC9F7880F911D7E
:102F70009695879597F90895E1E0660F771F881F6A
:102F8000BB1F621773078407BA0720F0621B730B1D
:102F9000840BBA0BEE1F88F7E095089504D068946F
:102FA000B11163C1089546D188F09F5790F0B92FB1
:102FB0009927B751A0F0D1F0660F771F881F991F8E
:102FC0001AF0BA95C9F712C0B13081F04DD1B1E015
:102FD00008954AC1672F782F8827B85F39F0B93F25
:102FE000CCF3869577956795B395D9F73EF4909590
:102FF0008095709561957F4F8F4F9F4F0895E8940E
:1030000009C097FB3EF490958095709561957F4F30
:103010008F4F9F4F9923A9F0F92F96E9BB279395DE
:10302000F695879577956795B795F111F8CFFAF4EE
:10303000BB0F11F460FF1BC06F5F7F4F8F4F9F4F1F
:1030400016C0882311F096E911C0772321F09EE87D
:10305000872F762F05C0662371F096E8862F70E0E3
:1030600060E02AF09A95660F771F881FDAF7880FBD
:103070009695879597F90895DF93CF931F930F93B4
:103080008B01EC01E9EBF0E03FD0AAD09801AE0152
:103090008B01EC0160E070E080E89FE332DE63D1F9
:1030A0009801AE010F911F91CF91DF91FBC0990F55
:1030B0000008550FAA0BE0E8FEEF16161706E80702
:1030C000F907C0F012161306E407F50798F0621B23
:1030D000730B840B950B39F40A2661F0232B242BF8
:1030E000252B21F408950A2609F4A140A6958FEF17
:1030F000811D811D089597F99F6780E870E060E069
:1031000008959FEF80EC0895DF93CF931F930F9363
:10311000FF92EF92DF927B018C01689405C0DA2E5A
:10312000EF01C0D0FE01E894A5912591359145911C
:103130005591AEF3EF01F7DDFE019701A801DA9496
:1031400079F7DF90EF90FF900F911F91CF91DF9172
:1031500008959F938F937F936F93FF93EF939B01BA
:10316000AC0194D0EF91FF91CFDF2F913F914F9120
:103170005F918CC000240A941616170618060906DB
:10318000089500240A9412161306140605060895DD
:10319000B8CF50D0E8F3E894E0E0BB279F57F0F0B9
:1031A0002AED3FE049EC06C0EE0FBB0F661F771F0C
:1031B000881F28F0B23A62077307840728F0B25AD2
:1031C000620B730B840BE3959A9572F7803830F499
:1031D0009A95BB0F661F771F881FD2F790480AC1C8
:1031E000092E0394000C11F4882352F0BB0F40F415
:1031F000BF2B11F460FF04C06F5F7F4F8F4F9F4F55
:103200000895EF93E0FF06C0A2EA2AED3FE049EC03
:103210005FEB89DDE5DF0F90039401FC9058E1EE50
:10322000F0E097CF57FD9058440F551F59F05F3F7E
:1032300071F04795880F97FB991F61F09F3F79F0D8
:1032400087950895121613061406551FF2CF46955A
:10325000F1DF08C0161617061806991FF1CF8695DC
:103260007105610508940895E894BB2766277727C0
:10327000CB0197F908951BDF08F48FEF08959B01A8
:10328000AC0160E070E080E89FE320CE0BD0A8CFD7
:1032900071DF28F076DF18F0952309F02CCF31CFBD
:1032A0001124E3CFBFDFA0F3959FD1F3950F50E03A
:1032B000551F629FF001729FBB27F00DB11D639FE8
:1032C000AA27F00DB11DAA1F649F6627B00DA11D8E
:1032D000661F829F2227B00DA11D621F739FB00D34
:1032E000A11D621F839FA00D611D221F749F3327A4
:1032F000A00D611D231F849F600D211D822F762F3D
:103300006A2F11249F5750408AF0E1F088234AF039
:10331000EE0FFF1FBB1F661F771F881F9150504085
:10332000A9F79E3F510570F0E6CE9FCF5F3FECF3CB
:10333000983EDCF3869577956795B795F795E79571
:103340009F5FC1F7FE2B880F911D9695879597F982
:1033500008959F931EDF0F9007FCEE5F52CF11F48C
:103360000EF4CFCE45C066DFD0F39923D9F3CEF368
:103370009F57550B87FF4AD00024A0E640EA9001F2
:1033800080585695979528F4805C660F771F881FA4
:1033900020F026173707480730F4621B730B840BA5
:1033A000202931294A2BA6951794079420253125E9
:1033B0004A2758F7660F771F881F20F02617370710
:1033C000480730F4620B730B840B200D311D411D37
:1033D000A09581F7B901842F9158880F969587950C
:1033E00008959B01AC0152CF62DE880B990B0895C2
:1033F0009F3F31F0915020F4879577956795B79569
:10340000880F911D9695879597F908959150504092
:10341000660F771F881FD2F70895A1E21A2EAA1B04
:10342000BB1BFD010DC0AA1FBB1FEE1FFF1FA21774
:10343000B307E407F50720F0A21BB30BE40BF50B71
:10344000661F771F881F991F1A9469F760957095FA
:10345000809590959B01AC01BD01CF010895EE0FC1
:10346000FF1F0590F491E02D0994FC01882799270E
:10347000E89421912032E9F3293010F02E30C8F37E
:103480002B3241F02D3239F4689404C00E947F1A27
:10349000820F911D219120532A30C0F31EF4909584
:1034A00081959F4F089540E751E00E94581A089572
:1034B000FA01A191B081009719F41097E1F0CD01C4
:1034C000DC01CD010D90002011F4C00113C0FB01FF
:1034D0002191222319F02015D9F7F3CFFB01219177
:1034E000201519F41E92119606C02223C1F70D90E3
:1034F0000020A1F7D001FA01A193B08308957AE0EA
:10350000979F902D879F802D910D11240895F894F9
:02351000FFCFEB
:1035120002000900060007000300040005002288DB
:10352200733A7B690A38BD3786357B690A387BF581
:10353200713A7B690AB8BD3786357B690AB81D586E
:103542008E3AEB93844189EF4BC3F5340AC17C0078
:10355200200000000000260EF90DCE0DD60DE90D5B
:10356200F80D0000000001137D1483129C128E12CC
:10357200DF126E616E00696E66006F7666002E0065
:00000001FF
