:100000000C945E000C9486000C9486000C94860080
:100010000C9486000C9486000C9486000C94860048
:100020000C9486000C9486000C9486000C94860038
:100030000C9486000C9486000C9486000C94860028
:100040000C942E050C9486000C943A080C946C08C1
:100050000C9486000C9486000C9486000C94860008
:100060000C9401040C9486000000000800020100BA
:100070000003040700000000000000000102040863
:100080001020408001020408102001020408102002
:10009000040404040404040402020202020203032E
:1000A0000303030300000000250028002B000000CC
:1000B0000000240027002A00B6039C0811241FBE5C
:1000C000CFEFD8E0DEBFCDBF11E0A0E0B1E0ECE1C2
:1000D000FBE102C005900D92AE33B107D9F722E0E3
:1000E000AEE3B1E001C01D92AB3AB207E1F710E018
:1000F000CCEBD0E004C02297FE010E94360DC83B35
:10010000D107C9F70E94E0080C948C0D0C940000F4
:1001100026E040E855E260E070E08EE092E00E9468
:10012000D80786E491E00E94AC0361E0809104016D
:100130000E94860661E0809108010E94860661E0C7
:10014000809106010C948606CF93DF93C4E0D1E042
:1001500060E070E088810E94FE0561E08091080106
:100160000E94BF0660E0809106010E94BF06609178
:100170004401709145018881DF91CF910C94FE0577
:10018000CF93DF93C4E0D1E060E070E088810E940B
:10019000FE0560E0809108010E94BF0661E0809149
:1001A00006010E94BF06609144017091450188815B
:1001B000DF91CF910C94FE054F925F926F927F92E8
:1001C0008F929F92AF92BF92CF92DF92EF92FF9267
:1001D0000F931F93CF93DF93CDB7DEB7C456D109EA
:1001E0000FB6F894DEBF0FBECDBF40910001509115
:1001F0000101609102017091030122E030E08EE084
:1002000092E00E94F00A6AE071E08EE092E00E94C3
:100210002D0940914001509141016091420170913E
:10022000430122E030E08EE092E00E94F00A6AE0B2
:1002300071E08EE092E00E942D096091440170917E
:1002400045014AE050E08EE092E00E94ED098EE028
:1002500092E00E94F506892BC9F064E670E080E028
:1002600090E00E949B058E010F5F1F4FE12CF12C47
:1002700068018EE092E00E94F506892B09F497C18F
:1002800083E6E816F10409F0ADC191C164E670E0BF
:1002900080E090E00E949B05409000015090010199
:1002A00060900201709003018090400190904101A4
:1002B000A0904201B0904301A5019401C301B20195
:1002C0000E94F30A6B017C0120E030E0A9010E944A
:1002D000A70C18165CF420E030E040E85FE3C701AB
:1002E000B6010E94580B87FF0BC013C020E030E01E
:1002F00040E85FEBC701B6010E94A70C18164CF04E
:1003000020E030E0A901C501B4010E94580B811121
:100310000BC060E0809108010E94BF0660E0809100
:1003200006010E94BF0669C120E030E0A901C501B5
:10033000B4010E94A70C18160CF05FC120E030E059
:1003400044E353E4C501B4010E94580B18160CF4A1
:1003500054C120E030E0A901C301B2010E94A70C02
:1003600018160CF04AC120E030E044E353E4C30126
:10037000B2010E94580B18160CF43FC1A50194015C
:10038000C301B2010E94580B20E030E0A90187FFB1
:1003900087C0C701B6010E94A70C18165CF420E0C4
:1003A00030E040E251E4C701B6010E94A70C87FF8C
:1003B0000BC012C020E030E040E251ECC701B601B2
:1003C0000E94580B181644F08FEF90E0909345016F
:1003D000809344010E94C00020914001309141016E
:1003E00040914201509143016091000170910101DF
:1003F00080910201909103010E94F30A6B017C013C
:1004000020E030E0A9010E94A70C18169CF420E01F
:1004100030E040E251E4C701B6010E94580B87FF6B
:10042000ECC0A701960160E070E080E291E40E94D8
:10043000F30A13C020E030E040E251ECC701B601FE
:100440000E94A70C18160CF0D8C020E030E040E263
:1004500051E4C701B6010E94F40A20E030E040E216
:1004600051E40E945C0B9B01AC0160E070E080E80D
:100470009FE30E94F30A20E030E04BE153E40E9446
:10048000AB0C20E030E048EC52E40E94F40A0E94F9
:10049000C40B70934501609344010E94C000ADC03D
:1004A000C701B6010E94A70C18165CF420E030E0EA
:1004B00040E251E4C701B6010E94A70C87FF0BC0C0
:1004C00012C020E030E040E251ECC701B6010E94CA
:1004D000580B181644F08FEF90E0909345018093ED
:1004E00044010E94A40020914001309141014091BB
:1004F000420150914301609100017091010180918E
:100500000201909103010E94F30A6B017C0120E03B
:1005100030E0A9010E94A70C18169CF420E030E0FE
:1005200040E251E4C701B6010E94580B87FF65C045
:10053000A701960160E070E080E291E40E94F30A76
:1005400013C020E030E040E251ECC701B6010E9448
:10055000A70C18160CF051C020E030E040E251E446
:10056000C701B6010E94F40A20E030E040E251E405
:100570000E945C0B9B01AC0160E070E080E89FE3AF
:100580000E94F30A20E030E04BE153E40E94AB0C00
:1005900020E030E048EC52E40E94F40A0E94C40BD0
:1005A00070934501609344010E94A40026C0F601A7
:1005B000EE0DFF1D10826DE071E0C6010E94580D26
:1005C0000E943A0DBC01882777FD8095982F0E94E4
:1005D000F70B609340017093410180934201909327
:1005E00043015ACEEFEFEE1AFE0A8EE092E00E942F
:1005F0000E07F80181938F013CCECC59DF4F0FB627
:10060000F894DEBF0FBECDBFDF91CF911F910F9148
:10061000FF90EF90DF90CF90BF90AF909F908F9022
:100620007F906F905F904F9008958091750190E05A
:1006300020917601821B9109089520917601809185
:100640007501281750F4E22FF0E0E958FE4F808141
:1006500090E02F5F2093760108958FEF9FEF08952C
:10066000E091760180917501E81730F4F0E0E958E7
:10067000FE4F808190E008958FEF9FEF08950895D9
:10068000CF92DF92EF92FF920F931F93CF93DF935E
:100690007C01CB018A0120915201222389F0EB01D8
:1006A0006B01C40ED51ECC15DD0569F06991D7012B
:1006B000ED91FC910190F081E02DC7010995F3CFF8
:1006C000642F0E94D803C801DF91CF911F910F9131
:1006D000FF90EF90DF90CF900895CF93DF931F921C
:1006E000CDB7DEB76983209152012223D1F020914A
:1006F0005301203240F021E030E0FC0133832283BB
:1007000080E090E015C080915401E82FF0E0EB5AB2
:10071000FE4F998190838F5F8093540180935301A2
:1007200005C061E0CE0101960E94D80381E090E00F
:100730000F90DF91CF910895FC011382128248EE51
:1007400053E060E070E0448355836683778383E100
:1007500091E0918380830895109276011092750143
:1007600010925401109253010C94BA0386E491E064
:100770000C949C031092040281E080930202109278
:10078000010261E082E10E94BF0661E083E10E9414
:10079000BF06E9EBF0E080818E7F808380818D7FD2
:1007A000808388E48093B80085E48093BC0008953A
:1007B000613298F420910402243089F46093B901E5
:1007C000FC018BEB91E0DC012A2F281B261718F483
:1007D00021912D93F9CF80E0089581E0089582E082
:1007E000089585ED8093BC008091BC0084FDFCCF12
:1007F00010920402089585EC8093BC0010920402CC
:1008000008951F920F920FB60F9211242F933F93CA
:100810004F935F936F937F938F939F93AF93BF9308
:10082000EF93FF938091B900887F803609F49CC0D4
:1008300068F5883209F45BC090F4803109F454C043
:1008400038F4882309F4F5C0883009F44DC0F5C0A8
:10085000883109F44CC0803209F45DC0EEC08034A8
:1008600009F468C048F4803309F455C0883309F0AE
:10087000E4C080939701A8C0803509F44FC0883543
:1008800009F45DC0883409F0D8C0D5C0883909F4AE
:10089000C6C0A8F4883709F467C038F4883609F46C
:1008A00063C0803709F460C0C8C0883809F4B7C095
:1008B000803909F45FC0803809F0BFC05BC0803B5D
:1008C00009F485C038F4803A09F466C0883A09F41E
:1008D0007EC0B3C0803C09F4A6C0883C09F4A3C024
:1008E000883B09F489C0A9C08091030210C090918F
:1008F000DC018091DB01981770F5E091DC0181E06B
:100900008E0F8093DC01F0E0E352FE4F80818093F4
:10091000BB0085EC85C0809397018DC0E091DC0120
:1009200081E08E0F8093DC018091BB00F0E0E35208
:10093000FE4F80839091DC018091DB016DC0E091DE
:10094000DC0181E08E0F8093DC018091BB00F0E040
:10095000E352FE4F80838091020281116CC081E0DE
:100960008093010284EA60C083E0809304021092C5
:100970009801CFCF80919801803208F050C0E0916B
:10098000980181E08E0F809398018091BB00F0E088
:10099000E756FE4F8083BDCF80919801803230F4BE
:1009A000E0919801F0E0E756FE4F10820E94F103BB
:1009B0006091980170E0E091FD01F091FE0189E9FC
:1009C00091E00995109298010E94FB0336C084E0E3
:1009D000809304021092BA011092B901E091FF01D4
:1009E000F091000209958091B901811105C081E063
:1009F0008093B9011092BB01E091BA0181E08E0FA2
:100A00008093BA01F0E0E554FE4F80818093BB00F3
:100A10009091BA018091B901981708F47ACF85E8CE
:100A20008093BC000AC085EC8093BC001092040245
:100A300004C0109297010E94F103FF91EF91BF91C2
:100A4000AF919F918F917F916F915F914F913F9166
:100A50002F910F900FBE0F901F9018951F920F921D
:100A60000FB60F9211242F933F938F939F93AF93C1
:100A7000BF938091060290910702A0910802B09165
:100A800009023091050223E0230F2D3720F401964F
:100A9000A11DB11D05C026E8230F0296A11DB11DA1
:100AA000209305028093060290930702A093080208
:100AB000B093090280910A0290910B02A0910C025E
:100AC000B0910D020196A11DB11D80930A02909371
:100AD0000B02A0930C02B0930D02BF91AF919F91B6
:100AE0008F913F912F910F900FBE0F901F901895EF
:100AF0003FB7F89480910A0290910B02A0910C02EA
:100B0000B0910D0226B5A89B05C02F3F19F00196A4
:100B1000A11DB11D3FBF6627782F892F9A2F620F25
:100B2000711D811D911D42E0660F771F881F991F5F
:100B30004A95D1F70895CF92DF92EF92FF92CF932B
:100B4000DF936B017C010E947805EB01C114D10495
:100B5000E104F10489F00E94F20A0E9478056C1BFE
:100B60007D0B683E734090F381E0C81AD108E1081C
:100B7000F108C851DC4FEACFDF91CF91FF90EF90A1
:100B8000DF90CF900895789484B5826084BD84B559
:100B9000816084BD85B5826085BD85B5816085BD78
:100BA000EEE6F0E0808181608083E1E8F0E0108291
:100BB000808182608083808181608083E0E8F0E0D2
:100BC000808181608083E1EBF0E0808184608083BC
:100BD000E0EBF0E0808181608083EAE7F0E08081F3
:100BE0008460808380818260808380818160808353
:100BF0008081806880831092C10008951F93CF93F5
:100C0000DF93182FEB0161E00E948606209711F414
:100C100060E004C0CF3FD10539F461E0812FDF915E
:100C2000CF911F910C94BF06E12FF0E0E859FF4FE0
:100C3000E491E330F9F048F4E130B9F0E230A1F5A5
:100C400084B5806284BDC8BD34C0E730E9F0E830C7
:100C500019F1E43049F58091800080628093800032
:100C6000D0938B00C0938A0024C084B5806884BD73
:100C7000C7BD1FC080918000806880938000D093A2
:100C80008900C093880015C08091B000806880936F
:100C9000B000C093B3000DC08091B000806280931B
:100CA000B000C093B40005C0C038D1050CF0B5CF7A
:100CB000AFCFDF91CF911F910895833081F028F459
:100CC000813099F08230A1F008958730A9F0883002
:100CD000B9F08430D1F4809180008F7D03C0809181
:100CE00080008F7780938000089584B58F7702C04D
:100CF00084B58F7D84BD08958091B0008F7703C047
:100D00008091B0008F7D8093B0000895CF93DF93E2
:100D100090E0FC01E458FF4F2491FC01E057FF4FA5
:100D20008491882349F190E0880F991FFC01E255D6
:100D3000FF4FA591B4918C559F4FFC01C591D49163
:100D40009FB7611108C0F8948C91209582238C93F1
:100D5000888182230AC0623051F4F8948C91322F3A
:100D6000309583238C938881822B888304C0F894E8
:100D70008C91822B8C939FBFDF91CF9108950F931D
:100D80001F93CF93DF931F92CDB7DEB7282F30E0AC
:100D9000F901E859FF4F8491F901E458FF4F14918C
:100DA000F901E057FF4F04910023C9F0882321F097
:100DB00069830E945D066981E02FF0E0EE0FFF1F5E
:100DC000EC55FF4FA591B4919FB7F8948C916111A8
:100DD00003C01095812301C0812B8C939FBF0F907E
:100DE000DF91CF911F910F910895FC01818D228D8C
:100DF00090E0805C9F4F821B91098F739927089523
:100E0000FC01918D828D981731F0828DE80FF11DD4
:100E1000858D90E008958FEF9FEF0895FC01918DEF
:100E2000828D981761F0828DDF01A80FB11D5D964C
:100E30008C91928D9F5F9F73928F90E008958FEFBA
:100E40009FEF089582E998E0892B49F080E090E0D7
:100E5000892B29F00E94920881110C9400000895BA
:100E6000FC01848DDF01A80FB11DA35ABF4F2C9147
:100E7000848D90E001968F739927848FA689B78916
:100E80002C93A089B1898C9180648C93938D848DEF
:100E9000981306C00288F389E02D80818F7D8083BE
:100EA0000895CF93DF93EC01888D8823C9F0EA89F8
:100EB000FB89808185FD05C0A889B9898C9186FD53
:100EC0000FC00FB607FCF5CF808185FFF2CFA88950
:100ED000B9898C9185FFEDCFCE010E943007E7CF15
:100EE000DF91CF910895CF92DF92FF920F931F93DE
:100EF000CF93DF931F92CDB7DEB76C01DC015B9619
:100F00009C915B975C968C915C97981307C0509668
:100F1000ED91FC915197808185FD32C0F601038DE2
:100F200010E00F5F1F4F0F731127F02EF601848D15
:100F3000F81211C00FB607FCF9CFD6015096ED910B
:100F4000FC915197808185FFF1CFC60169830E9492
:100F500030076981EBCF838DE80FF11DE35AFF4F16
:100F60006083D6015B960C935B975296ED91FC9152
:100F7000539780818062808381E058968C930DC066
:100F8000D6015696ED91FC91579760835096ED915E
:100F9000FC91519780818064808381E090E00F9084
:100FA000DF91CF911F910F91FF90DF90CF90089527
:100FB000BF92CF92DF92EF92FF92CF93DF93EC013B
:100FC0006A017B01B22EE889F98982E080834115AC
:100FD00081EE580761057105A1F060E079E08DE3CD
:100FE00090E0A70196010E94120D2150310941099C
:100FF00051095695479537952795211580E1380772
:1010000098F0E889F989108260E874E88EE190E050
:10101000A70196010E94120D215031094109510981
:101020005695479537952795EC85FD853083EE8558
:10103000FF852083188EEC89FD89B082EA89FB89BF
:10104000808180618083EA89FB89808188608083D8
:10105000EA89FB89808180688083EA89FB898081B5
:101060008F7D8083DF91CF91FF90EF90DF90CF90C5
:10107000BF9008951F920F920FB60F9211242F93D5
:101080008F939F93EF93FF93E0911E02F0911F02C5
:101090008081E0912402F091250282FD12C09081AE
:1010A000809127028F5F8F7320912802821751F061
:1010B000E0912702F0E0E25FFD4F958F80932702D9
:1010C00001C08081FF91EF919F918F912F910F909F
:1010D0000FBE0F901F9018951F920F920FB60F9290
:1010E00011242F933F934F935F936F937F938F932D
:1010F0009F93AF93BF93EF93FF938EE092E00E9494
:101100003007FF91EF91BF91AF919F918F917F91A8
:101110006F915F914F913F912F910F900FBE0F9064
:101120001F9018958EE092E00E94F50621E0892B31
:1011300009F420E0822F08951092110210921002FB
:1011400088EE93E0A0E0B0E0809312029093130247
:10115000A0931402B093150283E291E090930F02E2
:1011600080930E0285EC90E090931B0280931A020C
:1011700084EC90E090931D0280931C0280EC90E040
:1011800090931F0280931E0281EC90E090932102C5
:101190008093200282EC90E09093230280932202BD
:1011A00086EC90E09093250280932402109227020F
:1011B000109228021092290210922A02089508958E
:1011C0000E94C3050E94DF080E948800C2E2D7E0A7
:1011D0000E94DC002097E1F30E942207F9CFCF9212
:1011E000DF92EF92FF920F931F93CF93DF936C01E7
:1011F0007A01EB01E60EF71E00E010E0CE15DF05E8
:1012000061F06991D601ED91FC910190F081E02DA2
:10121000C6010995080F191FF1CFC801DF91CF91C1
:101220001F910F91FF90EF90DF90CF90089561157F
:10123000710581F0DB010D900020E9F7AD0141500F
:101240005109461B570BDC01ED91FC910280F381A3
:10125000E02D099480E090E008950C941709DC01DA
:10126000ED91FC910190F081E02D09940F931F9373
:10127000CF93DF93EC016DE00E942F098C016AE0AF
:10128000CE010E942F09800F911FDF91CF911F91F6
:101290000F9108958F929F92AF92BF92CF92DF925B
:1012A000EF92FF920F931F93CF93DF93CDB7DEB7EB
:1012B000A1970FB6F894DEBF0FBECDBF7C01C42E40
:1012C000E52FCB01D22E19A221E02D1510F02AE036
:1012D000D22E8E010F5D1F4F8D2C912CA12CB12C85
:1012E0006C2D7E2FA50194010E94120D8C2DD29E93
:1012F00080191124015011098A3014F4805D01C055
:10130000895CF8018083211531054105510521F0E3
:10131000C22EE32FCA01E4CFB801C7010E9417090A
:10132000A1960FB6F894DEBF0FBECDBFDF91CF916F
:101330001F910F91FF90EF90DF90CF90BF90AF90F3
:101340009F908F900895CF92DF92EF92FF920F932C
:101350001F93CF93DF93EC016A017B0121153105C7
:1013600079F4E881F9810190F081E02D642FDF911B
:10137000CF911F910F91FF90EF90DF90CF90099444
:101380002A303105E9F477FF1AC06DE20E942F0977
:101390008C0144275527BA014C195D096E097F0954
:1013A0002AE0CE010E944A09800F911FDF91CF9160
:1013B0001F910F91FF90EF90DF90CF9008952AE05A
:1013C000B701A601CE01DF91CF911F910F91FF9040
:1013D000EF90DF90CF900C944A090F931F93CF9317
:1013E000DF93EC019A01AB01662757FD6095762FDC
:1013F0000E94A3098C01CE010E943609800F911F23
:10140000DF91CF911F910F9108954F925F926F924C
:101410007F928F929F92AF92BF92CF92DF92EF9284
:10142000FF920F931F93CF93DF93EC016A017B012F
:10143000B22E9A01AB01C701B6010E940E0D88239E
:1014400019F06FE271E027C026013701E89477F8C0
:101450002FEF3FEF4FE75FE7C301B2010E940E0D90
:1014600081110DC02FEF3FEF4FE75FE7C301B201DE
:101470000E94580B18161CF463E371E00CC02FEFA8
:101480003FEF4FE75FE4C701B6010E94A70C1816B3
:10149000ACF467E371E0CE01DF91CF911F910F9122
:1014A000FF90EF90DF90CF90BF90AF909F908F9084
:1014B0007F906F905F904F900C9417092FEF3FEF44
:1014C0004FE75FECC701B6010E94580B87FDE1CFE3
:1014D00020E030E0A901C701B6010E94580B87FF48
:1014E0000AC06DE2CE010E942F098C01F7FAF09438
:1014F000F7F8F09402C000E010E0A12C60E070E08A
:1015000080E09FE3AB1441F020E030E040E251E4A2
:101510000E945C0BA394F6CF9B01AC01C701B601FE
:101520000E94F40A6B017C010E94C90B2B013C0153
:101530000E94F50B9B01AC01C701B6010E94F30AA2
:101540006B017C012AE0B301A201CE010E944A098D
:10155000080F191FBB2039F06BE371E0CE010E9428
:101560001709080F191F7B2C772041F120E030E08C
:1015700040E251E4C701B6010E94AB0C6B017C0153
:101580000E94C40B4B01AA2497FCA094BA2C2AE019
:1015900030E0B501A401CE010E94A309080F191F74
:1015A000C501B4010E94F70B9B01AC01C701B60154
:1015B0000E94F30A6B017C017A94D6CFC801DF91B7
:1015C000CF911F910F91FF90EF90DF90CF90BF9040
:1015D000AF909F908F907F906F905F904F90089505
:1015E0000C94050A08955058BB27AA270ED075C140
:1015F00066D130F06BD120F031F49F3F11F41EF42E
:101600005BC10EF4E095E7FB51C1E92F77D180F380
:10161000BA17620773078407950718F071F49EF5EF
:101620008FC10EF4E0950B2EBA2FA02D0B01B9013E
:1016300090010C01CA01A0011124FF27591B99F048
:10164000593F50F4503E68F11A16F040A22F232F54
:10165000342F4427585FF3CF469537952795A795A4
:10166000F0405395C9F77EF41F16BA0B620B730B4B
:10167000840BBAF09150A1F0FF0FBB1F661F771FBC
:10168000881FC2F70EC0BA0F621F731F841F48F471
:10169000879577956795B795F7959E3F08F0B3CFF7
:1016A0009395880F08F09927EE0F979587950895E1
:1016B000D9D008F481E008950CD00FC107D140F0D3
:1016C000FED030F021F45F3F19F0F0C0511139C164
:1016D000F3C014D198F39923C9F35523B1F3951BA3
:1016E000550BBB27AA2762177307840738F09F5F43
:1016F0005F4F220F331F441FAA1FA9F333D00E2EB2
:101700003AF0E0E830D091505040E695001CCAF71E
:1017100029D0FE2F27D0660F771F881FBB1F2617E3
:1017200037074807AB07B0E809F0BB0B802DBF01B6
:10173000FF2793585F4F2AF09E3F510568F0B6C0CF
:1017400000C15F3FECF3983EDCF386957795679593
:10175000B795F7959F5FC9F7880F911D9695879567
:1017600097F90895E1E0660F771F881FBB1F621786
:1017700073078407BA0720F0621B730B840BBA0B44
:10178000EE1F88F7E095089504D06894B111D9C090
:101790000895BCD088F09F5790F0B92F9927B75182
:1017A000A0F0D1F0660F771F881F991F1AF0BA9525
:1017B000C9F712C0B13081F0C3D0B1E00895C0C004
:1017C000672F782F8827B85F39F0B93FCCF386951B
:1017D00077956795B395D9F73EF490958095709578
:1017E00061957F4F8F4F9F4F0895E89409C097FBF5
:1017F0003EF490958095709561957F4F8F4F9F4FE8
:101800009923A9F0F92F96E9BB279395F69587952B
:1018100077956795B795F111F8CFFAF4BB0F11F4EE
:1018200060FF1BC06F5F7F4F8F4F9F4F16C0882395
:1018300011F096E911C0772321F09EE8872F762FCB
:1018400005C0662371F096E8862F70E060E02AF00C
:101850009A95660F771F881FDAF7880F96958795F8
:1018600097F90895990F0008550FAA0BE0E8FEEFCD
:1018700016161706E807F907C0F012161306E40754
:10188000F50798F0621B730B840B950B39F40A264D
:1018900061F0232B242B252B21F408950A2609F42B
:1018A000A140A6958FEF811D811D089597F99F672F
:1018B00080E870E060E008959FEF80EC08950024D8
:1018C0000A941616170618060906089500240A94A5
:1018D00012161306140605060895092E0394000C2B
:1018E00011F4882352F0BB0F40F4BF2B11F460FFBA
:1018F00004C06F5F7F4F8F4F9F4F089557FD9058E3
:10190000440F551F59F05F3F71F04795880F97FBC3
:10191000991F61F09F3F79F087950895121613067D
:101920001406551FF2CF4695F1DF08C016161706AC
:101930001806991FF1CF86957105610508940895E1
:10194000E894BB2766277727CB0197F908958ADFAC
:1019500008F48FEF08950BD0C0CFB1DF28F0B6DFC9
:1019600018F0952309F0A2CFA7CF1124EACFC6DF44
:10197000A0F3959FD1F3950F50E0551F629FF001A2
:10198000729FBB27F00DB11D639FAA27F00DB11DFB
:10199000AA1F649F6627B00DA11D661F829F222784
:1019A000B00DA11D621F739FB00DA11D621F839F0B
:1019B000A00D611D221F749F3327A00D611D231FE1
:1019C000849F600D211D822F762F6A2F11249F572F
:1019D00050408AF0E1F088234AF0EE0FFF1FBB1F52
:1019E000661F771F881F91505040A9F79E3F5105F1
:1019F00070F05CCFA6CF5F3FECF3983EDCF38695AA
:101A000077956795B795F795E7959F5FC1F7FE2B9B
:101A1000880F911D9695879597F9089523DF880B78
:101A2000990B0895A1E21A2EAA1BBB1BFD010DC044
:101A3000AA1FBB1FEE1FFF1FA217B307E407F5077E
:101A400020F0A21BB30BE40BF50B661F771F881F5A
:101A5000991F1A9469F760957095809590959B01F0
:101A6000AC01BD01CF010895EE0FFF1F0590F49169
:101A7000E02D0994FC0188279927E89421912032D0
:101A8000E9F3293010F02E30C8F32B3241F02D321B
:101A900039F4689404C00E94840D820F911D219135
:101AA00020532A30C0F31EF4909581959F4F0895DE
:101AB0004EE351E00E945D0D0895FA01A191B081BD
:101AC000009719F41097E1F0CD01DC01CD010D90E4
:101AD000002011F4C00113C0FB012191222319F051
:101AE0002015D9F7F3CFFB012191201519F41E928F
:101AF000119606C02223C1F70D900020A1F7D00156
:101B0000FA01A193B08308957AE0979F902D879F63
:0C1B1000802D910D11240895F894FFCF52
:101B1C000000164303000400050009090020000022
:101B2C000000006D03400315031D0330033F030049
:101B3C000000007307EF08F5060E07000751076E4B
:0E1B4C00616E00696E66006F7666002E000006
:00000001FF
