:100000000C94AA000C94D2000C94D2000C94D20050
:100010000C94D2000C94D2000C94D2000C94D20018
:100020000C94D2000C94D2000C94D2000C94D20008
:100030000C94D2000C94D2000C94D2000C94D200F8
:100040000C9479100C94D2000C9491130C94C3135B
:100050000C94D2000C94D2000C94D2000C94D200D8
:100060000C9464080C94D200C609CB09D409D909B0
:10007000DE09E309E809ED09036EDB363D9A99993B
:10008000993DABAAAA2A3E000000803F084AD73B10
:100090003BCE016E84BCBFFDC12F3D6C74319ABD57
:1000A00056833DDA3D00C77F11BED9E4BB4C3E917B
:1000B0006BAAAABE000000803F072C7AA5BA6CC5C7
:1000C00090DA3B9365FC8BBC53F810FD3C56928351
:1000D0004DBD879D3AB63DCBC9BF5BBE73DA0FC934
:1000E0003F05A84CCDB2D44EB93836A9020C50B950
:1000F000918688083CA6AAAA2ABE000000803F007C
:1001000000000008000201000003040700000000D6
:1001100000000000010204081020408001020408D1
:100120001020010204081020040404040404040440
:1001300002020202020203030303030300000000A1
:10014000250028002B0000000000240027002A00C2
:100150008207F31311241FBECFEFD8E0DEBFCDBF5F
:1001600011E0A0E0B1E0E8E9F4E302C005900D92EF
:10017000AE36B107D9F723E0AEE6B1E001C01D927B
:10018000A437B207E1F711E0C4E5D1E004C022973B
:10019000FE010E94F419C035D107C9F70E94371437
:1001A0000C944A1A0C94000026E040E052EC61E006
:1001B00070E087ED92E00E942F1328E630E040E0E7
:1001C00050E063E070E08CE891E00E94BE0F811186
:1001D00007C064EF71E080E090E00E94F210EDCF84
:1001E00060E08CE891E00E94141061E08CE891E0FE
:1001F0000E94191060E08CE891E00E94B90F8AEF2C
:1002000091E00E949A0A811107C064EF71E080E0DA
:1002100090E00E94F210F3CF61E070E08AEF91E08D
:100220000E94B80960E070E08AEF91E00E94570AEE
:1002300065E070E08AEF91E00E94690A63E070E097
:100240008AEF91E00E94810A40E050E060E070E0B7
:100250008AEF91E00C9491092F923F924F925F9216
:100260006F927F928F929F92AF92BF92CF92DF92C6
:10027000EF92FF920F931F93CF93DF93CDB7DEB72B
:10028000EC970FB6F894DEBF0FBECDBF3C0184E201
:10029000ECE0F1E0DE01119601900D928A95E1F714
:1002A0008CE0E0E3F1E0DE01D19601900D928A95B9
:1002B000E1F77E0121E3E20EF11C6E018DE3C80E31
:1002C000D11C83014701F701219131914191519155
:1002D0007F01F80160817181828193810E944416BF
:1002E000F80161937193819391938F01EC14FD0454
:1002F00051F71DA21EA21FA218A619A61AA61BA678
:100300001CA61DA61EA61FA618AA8E010B5D1F4FB8
:10031000CE0101965C01F80120803180428053803B
:100320006301E12CF12CF601619171918191919120
:100330006F01F501EE0DFF1D208131814281538156
:100340000E9409199B01AC01B101C2010E9445162E
:10035000F4E0EF0EF11C2CE0E216F10419F01B01A1
:100360002C01E1CFF80161937193819391938F01F7
:10037000FCE0AF0EB11C0815190569F68DA19EA110
:10038000AFA1B8A58093700190937101A093720101
:10039000B093730189A59AA5ABA5BCA58093740100
:1003A00090937501A0937601B09377018DA59EA5DA
:1003B000AFA5B8A98093780190937901A0937A01B1
:1003C000B0937B01EC960FB6F894DEBF0FBECDBFA5
:1003D000DF91CF911F910F91FF90EF90DF90CF9021
:1003E000BF90AF909F908F907F906F905F904F9055
:1003F0003F902F9008954F925F926F927F928F92CD
:100400009F92AF92BF92CF92DF92EF92FF920F93A3
:100410001F93CF93DF93CDB7DEB76C970FB6F894E9
:10042000DEBF0FBECDBFE982FA820B831C832D8312
:100430003E834F83588769877A878B879C8789811A
:100440009A81AB81BC81898B9A8BAB8BBC8B898564
:100450009A85AB85BC858D8B9E8BAF8BB88F6BA936
:100460007CA98DA99EA90E94A9164B015C018FA5AC
:1004700098A9A9A9BAA9BC01CD0190580E94A916B2
:100480006B017C0124E13EEA47E45FE3C501B4016E
:100490000E94FE1818160CF4A5C024E13EEA47E4B9
:1004A0005FEBC501B4010E94221787FD9BC024E1C8
:1004B0003EEA47E45FE3C701B6010E94FE18181642
:1004C0000CF490C024E13EEA47E45FEBC701B601BB
:1004D0000E94221787FD86C0C501B4010E9426171D
:1004E000698F7A8F8B8F9C8FC501B4010E946C1924
:1004F0006D877E878F87988BC701B6010E9426176C
:100500002B013C01C701B6010E946C194B015C0133
:10051000A301920169897A898B899C890E940919B2
:100520006B017C01A50194016D897E898F89988D6D
:100530000E9409199B01AC01C701B6010E94451632
:100540006B017C012D853E854F85588969897A89A3
:100550008B899C890E940919A50194010E9409199F
:100560004B015C012D813E814F815885698D7A8DCB
:100570008B8D9C8D0E9409199B01AC01C501B401B2
:100580000E9445164B015C012D853E854F8558899B
:100590006D897E898F89988D0E940919A301920126
:1005A0000E9409199B01AC01C501B4010E944416C7
:1005B000A70196016C960FB6F894DEBF0FBECDBFB3
:1005C000DF91CF911F910F91FF90EF90DF90CF902F
:1005D000BF90AF909F908F907F906F905F904F9063
:1005E0000C94CF1660E070E08AE794EC6C960FB63E
:1005F000F894DEBF0FBECDBFDF91CF911F910F9159
:10060000FF90EF90DF90CF90BF90AF909F908F9032
:100610007F906F905F904F900895CF92DF92EF920E
:10062000FF926B017C0120E030E0A9010E942217BB
:1006300087FF0AC02BED3FE049EC50E4C701B6014B
:100640000E9445166B017C012BED3FE049EC50E424
:10065000C701B6010E94FE18181654F42BED3FE0B6
:1006600049EC50E4C701B6010E9444166B017C01BD
:10067000C701B601FF90EF90DF90CF900895CF9320
:10068000DF9360E070E0809106010E94551160E008
:1006900080910A010E94161260E0809108010E9478
:1006A0001612C0E0D1E060E070E088810E94551130
:1006B00061E0809104010E94161260E080910201C5
:1006C0000E94161260918A0170918B018881DF91DE
:1006D000CF910C945511CF93DF9360E070E080913F
:1006E00006010E94551160E080910A010E941612D5
:1006F00060E0809108010E941612C0E0D1E060E045
:1007000070E088810E94551160E0809104010E9490
:10071000161261E0809102010E94161260918A0116
:1007200070918B018881DF91CF910C945511CF93FB
:10073000DF9360E070E0809100010E94551160E05D
:10074000809104010E94161260E0809102010E94D3
:100750001612C6E0D1E060E070E088810E94551179
:1007600061E080910A010E94161260E08091080108
:100770000E94161260918A0170918B018881DF912D
:10078000CF910C945511CF93DF93C6E0D1E060E098
:1007900070E088810E94551160E070E08091000156
:1007A0000E94551160E0809104010E94161260E0E1
:1007B000809102010E94161260E080910A010E945D
:1007C000161261E0809108010E94161260918A0160
:1007D00070918B018881DF91CF910C9455114F92CC
:1007E0005F926F927F928F929F92AF92BF92CF92C1
:1007F000DF92EF92FF920F931F93CF93DF93CDB7CA
:10080000DEB7C055D1090FB6F894DEBF0FBECDBF1D
:100810000E94C3106CE871E0CE0185960E94460DDF
:100820006AEF71E0CE0149960E94150B498C5A8CF3
:100830006B8C7C8C8D8D9E8DAF8DB8A125968CAFE9
:100840009DAFAEAFBFAF259789A19AA1ABA1BCA1C7
:1008500021968CAF9DAFAEAFBFAF21976CE871E032
:10086000CE010D960E94350C6CE871E0CE01019628
:100870000E94350CCD80DE80EF80F88489849A84D4
:10088000AB84BC848CE891E00E94621029966CAF26
:100890007DAF8EAF9FAF299749AA5AAA6BAA7CAAAF
:1008A00025968CAD9DADAEADBFAD25978DAB9EAB06
:1008B000AFABB8AF21968CAD9DADAEADBFAD2197BE
:1008C00089AF9AAFABAFBCAFCE01C1960E942C01ED
:1008D0008091700190917101A0917201B0917301AA
:1008E00021968CAF9DAFAEAFBFAF219780917401C1
:1008F00090917501A0917601B091770125968CAF0A
:100900009DAFAEAFBFAF25978091780190917901EF
:10091000A0917A01B0917B012D968CAF9DAFAEAFC7
:10092000BFAF2D97A7019601C701B6010E94091913
:100930002B013C01A5019401C501B4010E940919D4
:100940009B01AC01C301B2010E9445160E947619B9
:100950009B01AC0169817A818B819C810E94CF16B9
:1009600020E030E044E353E40E94091990582BED55
:100970003FE049E450E40E9429172B013C01A50106
:100980009401C701B6010E94CF1620E030E044E395
:1009900053E40E9409192BED3FE049E450E40E9422
:1009A000291761966CAF7DAF8EAF9FAF619721968F
:1009B0002CAD3DAD4EAD5FAD219725966CAD7DADB7
:1009C0008EAD9FAD25970E94CF164B015C016093C1
:1009D0008601709387018093880190938901219605
:1009E0008CAD9DADAEADBFAD2197898F9A8FAB8F8A
:1009F000BC8F25968CAD9DADAEADBFAD25978D8FCF
:100A00009E8FAF8FB8A32D968CAD9DADAEADBFAD13
:100A10002D9789A39AA3ABA3BCA3ADB7BEB71C9770
:100A20000FB6F894BEBF0FBEADBF11968CE0FE01AD
:100A30003D9601900D928A95E1F7E98CFA8C0B8D29
:100A40001C8D2D8D3E8D4F8D58A169A17AA18BA152
:100A50009CA10E94FB010FB6F894DEBF0FBECDBF74
:100A60006B017C0120E030E04AE754EC0E94221741
:100A7000882349F0C0928201D0928301E0928401E0
:100A8000F092850108C08092820190928301A09229
:100A90008401B092850129E13FEE48EE5DE3C50196
:100AA000B4010E9445160E940D034B015C0129E12F
:100AB0003FEE48EE5DE36091820170918301809189
:100AC0008401909185010E9445160E940D036B01DF
:100AD0007C0120E030E044E353E4C501B4010E940E
:100AE00009192BED3FE049E450E40E942917609377
:100AF000860170938701809388019093890120E09B
:100B000030E044E353E4C701B6010E9409192BED1C
:100B10003FE049E450E40E942917609382017093FA
:100B20008301809384019093850122E030E029962F
:100B30004CAD5DAD6EAD7FAD299787ED92E00E9423
:100B40002F166CE371E087ED92E00E9484144091CF
:100B5000860150918701609188017091890122E09E
:100B600030E087ED92E00E942F166CE371E087ED94
:100B700092E00E94841422E030E0B301A20187EDEC
:100B800092E00E942F166CE371E087ED92E00E94E4
:100B9000841422E030E061964CAD5DAD6EAD7FAD6A
:100BA000619787ED92E00E943116C05BDF4F0FB670
:100BB000F894DEBF0FBECDBFDF91CF911F910F9193
:100BC000FF90EF90DF90CF90BF90AF909F908F906D
:100BD0007F906F905F904F900895CF92DF92EF9249
:100BE000FF920F931F93CF93DF93CDB7DEB7C45619
:100BF000D1090FB6F894DEBF0FBECDBF87ED92E0EE
:100C00000E944C12892BE1F164E670E080E090E0F4
:100C10000E94F210CE0101967C0100E010E06C0110
:100C200087ED92E00E944C12892B19F003361105D2
:100C3000E9F5F601E00FF11F10826EE371E0C601E5
:100C40000E94161A0E94F8199093810180938001E6
:100C50006EE371E080E090E00E94161A0E94F8199D
:100C600090937F0180937E016EE371E080E090E0DD
:100C70000E94161A0E94F81990937D0180937C01BE
:100C80006AE070E080E090E00E94F210CC59DF4F03
:100C90000FB6F894DEBF0FBECDBFDF91CF911F918D
:100CA0000F91FF90EF90DF90CF9008950F5F1F4F4F
:100CB00087ED92E00E946512F70181937F01B0CF2A
:100CC0000E94EF030E94ED0580917C0190917D01CF
:100CD00090938B0180938A01892BA1F460E080912D
:100CE00004010E94161260E0809102010E94161217
:100CF00060E080910A010E94161260E08091080174
:100D00000C9416128091800190918101892B81F4BD
:100D100080917E0190917F01892B11F40E94C30381
:100D200080917E0190917F01019711F40E949703B9
:100D30008091800190918101019781F480917E01E1
:100D400090917F01892B11F40E946B0380917E01A9
:100D500090917F01019711F40C943F0308958091C5
:100D60003E0290E020913F02821B9109089520915C
:100D70003F0280913E02281750F4E22FF0E0E05C41
:100D8000FD4F808190E02F5F20933F0208958FEF09
:100D90009FEF0895E0913F0280913E02E81730F402
:100DA000F0E0E05CFD4F808190E008958FEF9FEFD1
:100DB00008950895CF92DF92EF92FF920F931F93C1
:100DC000CF93DF937C01CB018A0120911A02222369
:100DD00089F0EB016B01C40ED51ECC15DD0569F061
:100DE0006991D701ED91FC910190F081E02DC7014F
:100DF0000995F3CF642F0E943B08C801DF91CF9182
:100E00001F910F91FF90EF90DF90CF900895CF93B7
:100E1000DF931F92CDB7DEB7698320911A02222398
:100E2000D1F020911B02203240F021E030E0FC01A3
:100E30003383228380E090E015C080911C02E82F6C
:100E4000F0E0E35EFD4F998190838F5F80931C02F9
:100E500080931B0205C061E0CE0101960E943B0811
:100E600081E090E00F90DF91CF910895FC01138213
:100E7000128248EE53E060E070E04483558366835D
:100E8000778384E491E091838083089510923F02F8
:100E900010923E0210921C0210921B020C948607C4
:100EA000862F413208F040E260E472E00E94A4071D
:100EB00010923F0280933E02089521E00C94500767
:100EC00081E080931A0260933D0210921C021092FE
:100ED0001B0208950C9460070F93062F21E04091A8
:100EE0001B026DE172E080913D020E94E8071092C2
:100EF0001C0210921B0210921A020F91089561E0D9
:100F00000C946C078EE092E00C9436071092CD02A0
:100F100081E08093CB021092CA0261E082E10E94DC
:100F2000161261E083E10E941612E9EBF0E0808185
:100F30008E7F808380818D7F808388E48093B8005A
:100F400085E48093BC000895413208F03FC0909141
:100F5000CD029111FCCF91E09093CD022093CB0272
:100F60002FEF209360021092A502240F2093A40279
:100F70009093CC029091CC02880F892B8093CC0265
:100F80008091CA02813041F41092CA028091CC0251
:100F90008093BB0085EC01C085EE8093BC008091FE
:100FA000CD028130E1F38091A502841710F44091C5
:100FB000A50226EA32E0FB01D9018A2F821B8417A1
:100FC00018F48D918193F9CF842F089580E00895CE
:100FD0000F93413208F046C09091CD029111FCCFA1
:100FE00092E09093CD020093CB029FEF909360022A
:100FF0001092A5024093A402FB0166EA72E0DB01B5
:101000009A2F961B941718F491919D93F9CF1092F3
:10101000CC029091CC02880F892B8093CC028091D6
:10102000CA02813041F41092CA028091CC028093AE
:10103000BB0085EC01C085EE8093BC00222321F02B
:101040008091CD028230E1F3809160028F3F61F0A8
:1010500080916002803251F080916002803341F4CF
:1010600083E007C081E005C080E003C082E001C0EA
:1010700084E00F910895613298F42091CD022430DC
:1010800089F460938202FC0184E892E0DC012A2F5B
:10109000281B261718F421912D93F9CF80E008958D
:1010A00081E0089582E0089585ED8093BC008091F1
:1010B000BC0084FDFCCF1092CD02089585EC809396
:1010C000BC001092CD0208951F920F920FB60F929E
:1010D00011242F933F934F935F936F937F938F933D
:1010E0009F93AF93BF93EF93FF938091B900887F55
:1010F000803609F49CC068F5883209F45BC090F42E
:10110000803109F454C038F4882309F4F5C08830DC
:1011100009F44DC0F5C0883109F44CC0803209F49F
:101120005DC0EEC0803409F468C048F4803309F42F
:1011300055C0883309F0E4C080936002A8C08035B0
:1011400009F44FC0883509F45DC0883409F0D8C06F
:10115000D5C0883909F4C6C0A8F4883709F467C037
:1011600038F4883609F463C0803709F460C0C8C019
:10117000883809F4B7C0803909F45FC0803809F0B5
:10118000BFC05BC0803B09F485C038F4803A09F4E5
:1011900066C0883A09F47EC0B3C0803C09F4A6C09A
:1011A000883C09F4A3C0883B09F489C0A9C0809198
:1011B000CC0210C09091A5028091A402981770F5FE
:1011C000E091A50281E08E0F8093A502F0E0EA5540
:1011D000FD4F80818093BB0085EC85C080936002C9
:1011E0008DC0E091A50281E08E0F8093A5028091D1
:1011F000BB00F0E0EA55FD4F80839091A5028091FD
:10120000A4026DC0E091A50281E08E0F8093A5023B
:101210008091BB00F0E0EA55FD4F80838091CB02C6
:1012200081116CC081E08093CA0284EA60C083E0CF
:101230008093CD0210926102CFCF80916102803203
:1012400008F050C0E091610281E08E0F809361024E
:101250008091BB00F0E0EE59FD4F8083BDCF8091BF
:101260006102803230F4E0916102F0E0EE59FD4F0E
:1012700010820E9454086091610270E0E091C60201
:10128000F091C70282E692E00995109261020E94F5
:101290005E0836C084E08093CD02109283021092E3
:1012A0008202E091C802F091C90209958091820200
:1012B000811105C081E08093820210928402E09146
:1012C000830281E08E0F80938302F0E0EC57FD4FA4
:1012D00080818093BB009091830280918202981755
:1012E00008F47ACF85E88093BC000AC085EC80932F
:1012F000BC001092CD0204C0109260020E945408FB
:10130000FF91EF91BF91AF919F918F917F916F91DD
:101310005F914F913F912F910F900FBE0F901F90B3
:101320001895FC01718B608B538B428B08951F9332
:10133000CF93DF931F92CDB7DEB7162F6EE170E02B
:101340008EE092E049830E946A07612F8EE092E06E
:101350000E9407074981642F8EE092E00E940707F0
:101360008EE092E00F90DF91CF911F910C947F0758
:101370000F931F93CF93DF93EC0168307105A8F5AD
:10138000CB018C5C9F4FFC010C94F21986E091E834
:10139000A5E9BDE304C08FE195E8ABE6BFE3888330
:1013A0009983AA83BB8321C086EF98E2ACE9BFE3AF
:1013B000F6CF8CE59FE8A2ECBFE3F1CF8EEA97E48D
:1013C000A1E1B0E4ECCF0AE017ED23E230E409C07C
:1013D00005E81BEE21E430E404C003E313E32BE84B
:1013E00030E4088319832A833B83462F4295440FB8
:1013F000407E61E0CE01DF91CF911F910F910C945F
:101400009709CF93C62F6EE170E08EE092E00E94C4
:101410006A076C2F8EE092E00E9407078EE092E050
:101420000E947F0741E050E06EE170E08EE092E0C4
:101430000E945D078EE092E00E94B706C82F8EE002
:1014400092E00E947F078C2FCF910895CF93C62FF3
:101450006EE170E08EE092E00E946A076C2F8EE0F1
:1014600092E00E9407078EE092E00E947F076EE103
:1014700070E08EE092E00E946A0741E050E06EE189
:1014800070E08EE092E00E945D078EE092E00E94A4
:10149000AF06892BD1F38EE092E00E94B706C82FE9
:1014A0008EE092E00E947F078C2FCF9108951F93CA
:1014B000CF93DF93EC01162F62E00E94260A482F9B
:1014C0004C7F412B62E0CE01DF91CF911F910C94B4
:1014D00097090F931F93CF93DF93EC018B0160E08B
:1014E0000E94260A482F437E000F111F000F111F74
:1014F000402B60E0CE01DF91CF911F910F910C94B2
:1015000097090F931F93CF93DF93EC018B0160E05A
:101510000E94260A482F4F7955E0000F111F5A9557
:10152000E1F7402B60E0CE01DF91CF911F910F9149
:101530000C949709CF93DF93EC018EE092E00E9428
:1015400046076AE0CE010E94010A883451F56BE03B
:10155000CE010E94010A843321F56CE0CE010E9485
:10156000010A8333F1F461E070E0CE010E94B80912
:1015700060E070E0CE010E94570A64E070E0CE01A6
:101580000E94690A60E070E0CE010E94810A4FE18A
:1015900055E86BE67FE3488359836A837B8381E068
:1015A00001C080E0DF91CF9108950F931F93CF93F7
:1015B000DF93162F6EE170E08EE092E00E946A07E2
:1015C000612F8EE092E00E9407078EE092E00E9479
:1015D0007F076EE170E08EE092E00E946A0742E0D1
:1015E00050E06EE170E08EE092E00E945D078EE0D8
:1015F00092E00E94AF06892BD1F38EE092E00E9428
:10160000B706082F8EE092E00E94B706182F8EE0F2
:1016100092E00E947F07D02F80E0C82FCE01812B5F
:10162000DF91CF911F910F910895CF92DF92EF92AA
:10163000FF920F931F93CF93DF938C01EB0163E035
:10164000CE010E94D50ABC01882777FD8095982F8E
:101650000E94C4176B017C0168897989882777FD0E
:101660008095982F0E94C4179B01AC01C701B60159
:101670000E944416288139814A815B810E940919A0
:101680006C837D838E839F8367E0CE010E94D50AA1
:10169000BC01882777FD8095982F0E94C4176B01A5
:1016A0007C016A897B89882777FD8095982F0E9425
:1016B000C4179B01AC01C701B6010E9444162881E2
:1016C00039814A815B810E940919688779878A87F5
:1016D0009B8765E0CE010E94D50ABC01882777FD73
:1016E0008095982F0E94C417288139814A815B8197
:1016F0000E9409196C877D878E879F878CE0FE0189
:101700003496D80101900D928A95E1F7C801DF91D6
:10171000CF911F910F91FF90EF90DF90CF900895A0
:10172000DC01ED91FC910190F081E02D09944F9244
:101730005F926F927F928F929F92AF92BF92CF9261
:10174000DF92EF92FF920F931F93CF93DF938C0161
:10175000EB014B018CE6880E911CF40160817181D4
:101760008EE092E00E946A076BE370E08EE092E008
:101770000E94900B8EE092E00E947F07F40160814E
:1017800071818EE092E00E946A07F40160817181AC
:1017900046E050E08EE092E00E945D078EE092E02D
:1017A0000E94AF060697D4F38EE092E00E94B7063F
:1017B000482E8EE092E00E94B706582E8EE092E00E
:1017C0000E94B706682E8EE092E00E94B706782E3F
:1017D0008EE092E00E94B706882E8EE092E00E9492
:1017E000B706982EB42CA12CA528B501882777FD23
:1017F0008095982F0E94C417688379838A839B837E
:10180000D62CC12CC728B601882777FD8095982F44
:101810000E94C4176C837D838E839F83F82CE12CF8
:10182000E928B701882777FD8095982F0E94C41773
:10183000688779878A879B878CE0FE01D8010190B1
:101840000D928A95E1F7C801DF91CF911F910F9119
:10185000FF90EF90DF90CF90BF90AF909F908F90D0
:101860007F906F905F904F900895AF92BF92CF920C
:10187000DF92EF92FF920F931F93CF93DF93CDB739
:10188000DEB72C970FB6F894DEBF0FBECDBF5C015C
:101890008B01CE0101960E94970BF801ED59FF4F85
:1018A000C080D180E280F380F801208131814281C3
:1018B0005381C701B6010E9409192AE038EE4CE1B4
:1018C00051E40E940919F801608F718F828F938F04
:1018D0002481358146815781C701B6010E940919CB
:1018E0002AE038EE4CE151E40E940919F801648FB6
:1018F000758F868F978F2085318542855385C701E7
:10190000B6010E9409192AE038EE4CE151E40E9428
:101910000919F80160A371A382A393A38CE07896C0
:10192000D50101900D928A95E1F7C5012C960FB66D
:10193000F894DEBF0FBECDBFDF91CF911F910F9105
:10194000FF90EF90DF90CF90BF90AF9008954F92AF
:101950005F926F927F928F929F92AF92BF92CF923F
:10196000DF92EF92FF920F931F93CF93DF938C013F
:10197000EB014B018CE6880E911CF40160817181B2
:101980008EE092E00E946A0763E470E08EE092E0ED
:101990000E94900B8EE092E00E947F07F40160812C
:1019A00071818EE092E00E946A07F401608171818A
:1019B00046E050E08EE092E00E945D078EE092E00B
:1019C0000E94AF060697D4F38EE092E00E94B7061D
:1019D000482E8EE092E00E94B706582E8EE092E0EC
:1019E0000E94B706682E8EE092E00E94B706782E1D
:1019F0008EE092E00E94B706882E8EE092E00E9470
:101A0000B706982EB42CA12CA528B501882777FD00
:101A10008095982F0E94C4176C877D878E879F873B
:101A2000D62CC12CC728B601882777FD8095982F22
:101A30000E94C417688B798B8A8B9B8BF82CE12CC6
:101A4000E928B701882777FD8095982F0E94C41751
:101A50006C8B7D8B8E8B9F8B8CE0FE013C96D8012E
:101A600001900D928A95E1F7C801DF91CF911F9106
:101A70000F91FF90EF90DF90CF90BF90AF909F902D
:101A80008F907F906F905F904F900895AF92BF922C
:101A9000CF92DF92EF92FF920F931F93CF93DF933A
:101AA000CDB7DEB72C970FB6F894DEBF0FBECDBF13
:101AB0005C018B01CE0101960E94A70CF801E5594B
:101AC000FF4F80813C97C080D180E280F3808823E3
:101AD000D1F1F80124AD35AD46AD57AD64857585BE
:101AE000868597850E944416A70196010E940919D0
:101AF000F80164A375A386A397A3E05CFF4F208140
:101B0000318142815381F801608971898289938989
:101B10000E944416A70196010E940919F80160A7C6
:101B200071A782A793A7EC5BFF4F2081318142818F
:101B30005381F80164897589868997890E944416C2
:101B4000A701960121C0A7019601F801648575855A
:101B5000868597850E940919F80164A375A386A359
:101B600097A3A701960160897189828993890E9450
:101B70000919F80160A771A782A793A7A701960189
:101B800064897589868997890E940919F80164A773
:101B900075A786A797A720E030E0A901F801E959C9
:101BA000FF4F60817181828193810E942217882377
:101BB00009F466C0F801C4A0D5A0E6A0F7A020E013
:101BC00030E0A901C701B6010E94FE18181624F0E2
:101BD000C701B601905802C0C701B601F80120A99B
:101BE00031A942A953A90E94221787FF05C0F80115
:101BF00014A215A216A217A2F801C0A4D1A4E2A4AF
:101C0000F3A420E030E0A901C701B6010E94FE184C
:101C1000181624F0C701B601905802C0C701B601DA
:101C2000F80124A935A946A957A90E94221787FFC0
:101C300005C0F80110A611A612A613A6F801C4A4A7
:101C4000D5A4E6A4F7A420E030E0A901C701B601BD
:101C50000E94FE18181624F0C701B601905802C061
:101C6000C701B601F80120AD31AD42AD53AD0E94C0
:101C7000221787FF05C0F80114A615A616A617A6F9
:101C80008CE0F801B496D50101900D928A95E1F7A8
:101C9000C5012C960FB6F894DEBF0FBECDBFDF9105
:101CA000CF911F910F91FF90EF90DF90CF90BF9059
:101CB000AF9008951F93CF93DF93162FEC01C45973
:101CC000DF4F688179818EE092E00E946A07612F80
:101CD0008EE092E00E9407078EE092E00E947F076C
:101CE000688179818EE092E00E946A07688179813B
:101CF00041E050E08EE092E00E945D078EE092E0CD
:101D00000E94B706C82F8EE092E00E947F078C2FBA
:101D1000DF91CF911F9108951F93CF93DF93162FDB
:101D2000EC01C459DF4F688179818EE092E00E9416
:101D30006A07612F8EE092E00E9407078EE092E032
:101D40000E947F07688179818EE092E00E946A0795
:101D50006881798141E050E08EE092E00E945D0769
:101D60008EE092E00E94AF06892BD1F38EE092E0E4
:101D70000E94B706C82F8EE092E00E947F078C2F4A
:101D8000DF91CF911F9108951F93CF93DF931F92FF
:101D9000CDB7DEB7162F84599F4FFC01608171814A
:101DA0008EE092E049830E946A07612F8EE092E004
:101DB0000E9407074981642F8EE092E00E94070786
:101DC0008EE092E00F90DF91CF911F910C947F07EE
:101DD0000F931F93CF93DF93EC018B01613071055B
:101DE000A1F044F46115710539F58FE39EE1AAEF86
:101DF000BBE30FC062307105A1F063307105E1F4FF
:101E00004CEE50EC69E77DE310C080E792E2AAE770
:101E1000BCE3FE01E15AFF4F80839183A283B38329
:101E20000BC04FED5FEB69EF7CE3FE01E15AFF4F22
:101E300040835183628373836BE1CE010E948C0ED9
:101E4000482F477E53E0000F111F5A95E1F7402BB2
:101E50006BE1CE01DF91CF911F910F910C94C40ED5
:101E60000F931F93CF93DF93EC018B0161307105CA
:101E7000A1F044F46115710539F580E49AEDAFE7FE
:101E8000B8E30FC062307105A1F063307105E1F471
:101E900048E155EF6FEF79E310C080E49AEDAFEFC2
:101EA000B8E3FE01ED59FF4F80839183A283B38392
:101EB0000BC040E45AED6FE779E3FE01ED59FF4FA7
:101EC00040835183628373836CE1CE010E948C0E48
:101ED000482F477E63E0000F111F6A95E1F7402B02
:101EE0006CE1CE01DF91CF911F910F910C94C40E44
:101EF0001F93CF93DF93EC01162F6BE60E948C0E9D
:101F0000482F487F412B6BE6CE01DF91CF911F9187
:101F10000C94C40EEF92FF921F93CF93DF9300D0E7
:101F2000CDB7DEB77C01162F2A8349830E948C0E21
:101F30002A814981222349F021E030E001C0220FAB
:101F40004A95EAF7482F422B09C021E030E001C052
:101F5000220F4A95EAF7422F40954823612FC70187
:101F60000F900F90DF91CF911F91FF90EF900C9405
:101F7000C40E262F46E06BE60C948A0FEF92FF9278
:101F80000F931F93CF93DF93EC018B017A01FC0138
:101F9000E459FF4F318320838EE092E00E94460790
:101FA0001CAE1DAE1EAE1FAEFE01E05CFF4F1082E8
:101FB000118212821382349610821182128213824D
:101FC000B796108218AA19AA1AAA1BAA1CAA1DAA97
:101FD0001EAA1FAA18AE19AE1AAE1BAE34971082F5
:101FE00011821282138265E7CE010E945A0E883652
:101FF00099F461E070E0CE010E94780FB801CE0143
:102000000E94E80EB701CE010E94300F60E0CE01C1
:102010000E94B90F81E001C080E0DF91CF911F9154
:102020000F91FF90EF900895262F45E06AE60C94FB
:102030008A0F262F41E067E30C948A0FFF920F93DB
:102040001F93CF93DF93F62EEC01C459DF4F6881C5
:1020500079818EE092E00E946A076F2D8EE092E017
:102060000E9407078EE092E00E947F0768817981D5
:102070008EE092E00E946A076881798142E050E038
:102080008EE092E00E945D078EE092E00E94AF0633
:10209000892BD1F38EE092E00E94B706D82F8EE014
:1020A00092E00E94B706C82F8EE092E00E947F0760
:1020B0001D2F00E0C8018C2BDF91CF911F910F9154
:1020C000FF90089561E40E941E10BC01882777FDEF
:1020D0008095982F0E94C41720E030E04AEA53E42C
:1020E0000E94291728EB3EE142E152E40E94451686
:1020F00008951F920F920FB60F9211242F933F93C2
:102100008F939F93AF93BF938091CF029091D00212
:10211000A091D102B091D2023091CE0223E0230FE0
:102120002D3720F40196A11DB11D05C026E8230F0F
:102130000296A11DB11D2093CE028093CF029093F1
:10214000D002A093D102B093D2028091D302909199
:10215000D402A091D502B091D6020196A11DB11D65
:102160008093D3029093D402A093D502B093D60269
:10217000BF91AF919F918F913F912F910F900FBE83
:102180000F901F9018952FB7F8946091CF0270911F
:10219000D0028091D1029091D2022FBF08953FB713
:1021A000F8948091D3029091D402A091D502B0917D
:1021B000D60226B5A89B05C02F3F19F00196A11D98
:1021C000B11D3FBF6627782F892F9A2F620F711D8F
:1021D000811D911D42E0660F771F881F991F4A9548
:1021E000D1F70895CF92DF92EF92FF92CF93DF93D2
:1021F0006B017C010E94CF10EB01C114D104E104FA
:10220000F10489F00E9443160E94CF106C1B7D0BD5
:10221000683E734090F381E0C81AD108E108F108E4
:10222000C851DC4FEACFDF91CF91FF90EF90DF9064
:10223000CF900895789484B5826084BD84B5816020
:1022400084BD85B5826085BD85B5816085BDEEE6BE
:10225000F0E0808181608083E1E8F0E0108280819D
:1022600082608083808181608083E0E8F0E080810B
:1022700081608083E1EBF0E0808184608083E0EB2B
:10228000F0E0808181608083EAE7F0E08081846013
:10229000808380818260808380818160808380816F
:1022A000806880831092C10008951F93CF93DF93BD
:1022B000182FEB0161E00E94DD11209711F460E01E
:1022C00004C0CF3FD10539F461E0812FDF91CF9178
:1022D0001F910C941612E12FF0E0E050FF4FE491B3
:1022E000E330F9F048F4E130B9F0E230A1F584B51B
:1022F000806284BDC8BD34C0E730E9F0E83019F130
:10230000E43049F580918000806280938000D09312
:102310008B00C0938A0024C084B5806884BDC7BD8B
:102320001FC080918000806880938000D0938900D6
:10233000C093880015C08091B00080688093B00081
:10234000C093B3000DC08091B00080628093B00054
:10235000C093B40005C0C038D1050CF0B5CFAFCFE5
:10236000DF91CF911F910895833081F028F481305F
:1023700099F08230A1F008958730A9F08830B9F043
:102380008430D1F4809180008F7D03C080918000E3
:102390008F7780938000089584B58F7702C084B5CD
:1023A0008F7D84BD08958091B0008F7703C08091A8
:1023B000B0008F7D8093B0000895CF93DF9390E0BD
:1023C000FC01EC5EFE4F2491FC01E85DFE4F849120
:1023D000882349F190E0880F991FFC01EA5BFE4FCA
:1023E000A591B491845C9E4FFC01C591D4919FB797
:1023F000611108C0F8948C91209582238C93888178
:1024000082230AC0623051F4F8948C91322F3095B7
:1024100083238C938881822B888304C0F8948C91C9
:10242000822B8C939FBFDF91CF9108950F931F93C1
:10243000CF93DF931F92CDB7DEB7282F30E0F9019D
:10244000E050FF4F8491F901EC5EFE4F1491F901C9
:10245000E85DFE4F04910023C9F0882321F06983D1
:102460000E94B4116981E02FF0E0EE0FFF1FE45CE1
:10247000FE4FA591B4919FB7F8948C91611103C060
:102480001095812301C0812B8C939FBF0F90DF910A
:10249000CF911F910F910895FC01818D228D90E0C5
:1024A000805C9F4F821B91098F7399270895FC01CF
:1024B000918D828D981731F0828DE80FF11D858DF9
:1024C00090E008958FEF9FEF0895FC01918D828D2C
:1024D000981761F0828DDF01A80FB11D5D968C9178
:1024E000928D9F5F9F73928F90E008958FEF9FEF83
:1024F000089589EE93E1892B49F080E090E0892BE3
:1025000029F00E94E91381110C9400000895FC0148
:10251000848DDF01A80FB11DA35ABF4F2C91848D6C
:1025200090E001968F739927848FA689B7892C93A1
:10253000A089B1898C9180648C93938D848D98133C
:1025400006C00288F389E02D80818F7D8083089505
:10255000CF93DF93EC01888D8823C9F0EA89FB894A
:10256000808185FD05C0A889B9898C9186FD0FC041
:102570000FB607FCF5CF808185FFF2CFA889B98916
:102580008C9185FFEDCFCE010E948712E7CFDF91BE
:10259000CF910895CF92DF92FF920F931F93CF9325
:1025A000DF931F92CDB7DEB76C01DC015B969C9187
:1025B0005B975C968C915C97981307C05096ED9151
:1025C000FC915197808185FD32C0F601038D10E0AA
:1025D0000F5F1F4F0F731127F02EF601848DF81235
:1025E00011C00FB607FCF9CFD6015096ED91FC91C2
:1025F0005197808185FFF1CFC60169830E948712C0
:102600006981EBCF838DE80FF11DE35AFF4F6083A3
:10261000D6015B960C935B975296ED91FC91539784
:1026200080818062808381E058968C930DC0D601B2
:102630005696ED91FC91579760835096ED91FC91E1
:10264000519780818064808381E090E00F90DF91DA
:10265000CF911F910F91FF90DF90CF900895BF927F
:10266000CF92DF92EF92FF92CF93DF93EC016A015A
:102670007B01B22EE889F98982E08083411581EEE1
:10268000580761057105A1F060E079E08DE390E005
:10269000A70196010E94D019215031094109510921
:1026A0005695479537952795211580E1380798F07D
:1026B000E889F989108260E874E88EE190E0A7016A
:1026C00096010E94D01921503109410951095695AE
:1026D000479537952795EC85FD853083EE85FF85F9
:1026E0002083188EEC89FD89B082EA89FB8980817C
:1026F00080618083EA89FB89808188608083EA89A0
:10270000FB89808180688083EA89FB8980818F7D55
:102710008083DF91CF91FF90EF90DF90CF90BF90BB
:1027200008951F920F920FB60F9211242F938F933B
:102730009F93EF93FF93E091E702F091E80280818D
:10274000E091ED02F091EE0282FD12C09081809145
:10275000F0028F5F8F732091F102821751F0E091A8
:10276000F002F0E0E952FD4F958F8093F00201C036
:102770008081FF91EF919F918F912F910F900FBECC
:102780000F901F9018951F920F920FB60F92112461
:102790002F933F934F935F936F937F938F939F9369
:1027A000AF93BF93EF93FF9387ED92E00E94871260
:1027B000FF91EF91BF91AF919F918F917F916F9119
:1027C0005F914F913F912F910F900FBE0F901F90EF
:1027D000189587ED92E00E944C1221E0892B09F4B4
:1027E00020E0822F08951092DA021092D90288EE2A
:1027F00093E0A0E0B0E08093DB029093DC02A09332
:10280000DD02B093DE0284E591E09093D8028093DC
:10281000D70285EC90E09093E4028093E30284EC8D
:1028200090E09093E6028093E50280EC90E0909334
:10283000E8028093E70281EC90E09093EA028093B3
:10284000E90282EC90E09093EC028093EB0286EC3C
:1028500090E09093EE028093ED021092F0021092BD
:10286000F1021092F2021092F302089508950E946C
:102870001A110E9436140E94D400C9E7D2E10E94C6
:1028800060062097E1F30E947912F9CFCF92DF9290
:10289000EF92FF920F931F93CF93DF936C017A0116
:1028A000EB01E60EF71E00E010E0CE15DF0561F04B
:1028B0006991D601ED91FC910190F081E02DC60166
:1028C0000995080F191FF1CFC801DF91CF911F9112
:1028D0000F91FF90EF90DF90CF90089561157105F3
:1028E00081F0DB010D900020E9F7AD014150510965
:1028F000461B570BDC01ED91FC910280F381E02D2A
:10290000099480E090E008950C946E14DC01ED9140
:10291000FC910190F081E02D09940F931F93CF93C8
:10292000DF93EC016DE00E9486148C016AE0CE0119
:102930000E948614800F911FDF91CF911F910F91FC
:1029400008958F929F92AF92BF92CF92DF92EF92B3
:10295000FF920F931F93CF93DF93CDB7DEB7A1976D
:102960000FB6F894DEBF0FBECDBF7C01C42EE52F9D
:10297000CB01D22E19A221E02D1510F02AE0D22E83
:102980008E010F5D1F4F8D2C912CA12CB12C6C2D25
:102990007E2FA50194010E94D0198C2DD29E801902
:1029A0001124015011098A3014F4805D01C0895C42
:1029B000F8018083211531054105510521F0C22E12
:1029C000E32FCA01E4CFB801C7010E946E14A1969B
:1029D0000FB6F894DEBF0FBECDBFDF91CF911F9130
:1029E0000F91FF90EF90DF90CF90BF90AF909F90AE
:1029F0008F900895CF92DF92EF92FF920F931F93E3
:102A0000CF93DF93EC016A017B012115310579F445
:102A1000E881F9810190F081E02D642FDF91CF9161
:102A20001F910F91FF90EF90DF90CF9009942A3083
:102A30003105E9F477FF1AC06DE20E9486148C011B
:102A400044275527BA014C195D096E097F092AE010
:102A5000CE010E94A114800F911FDF91CF911F9191
:102A60000F91FF90EF90DF90CF9008952AE0B7018B
:102A7000A601CE01DF91CF911F910F91FF90EF90B2
:102A8000DF90CF900C94A1144F925F926F927F923F
:102A90008F929F92AF92BF92CF92DF92EF92FF926E
:102AA0000F931F93CF93DF93EC016A017B01B22E4A
:102AB0009A01AB01C701B6010E94B719882319F02A
:102AC00060E671E027C026013701E89477F82FEF20
:102AD0003FEF4FE75FE7C301B2010E94B7198111D1
:102AE0000DC02FEF3FEF4FE75FE7C301B2010E9438
:102AF000221718161CF464E671E00CC02FEF3FEFAC
:102B00004FE75FE4C701B6010E94FE181816ACF447
:102B100068E671E0CE01DF91CF911F910F91FF9098
:102B2000EF90DF90CF90BF90AF909F908F907F906D
:102B30006F905F904F900C946E142FEF3FEF4FE724
:102B40005FECC701B6010E94221787FDE1CF20E0AC
:102B500030E0A901C701B6010E94221787FF0AC011
:102B60006DE2CE010E9486148C01F7FAF094F7F81A
:102B7000F09402C000E010E0A12C60E070E080E082
:102B80009FE3AB1441F020E030E040E251E40E94CA
:102B90002917A394F6CF9B01AC01C701B6010E948F
:102BA00045166B017C010E9496172B013C010E9487
:102BB000C2179B01AC01C701B6010E9444166B010C
:102BC0007C012AE0B301A201CE010E94A114080FEA
:102BD000191FBB2039F06CE671E0CE010E946E1423
:102BE000080F191F7B2C772041F120E030E040E2F4
:102BF00051E4C701B6010E9409196B017C010E94D2
:102C000091174B01AA2497FCA094BA2C2AE030E03B
:102C1000B501A401CE010E94FA14080F191FC501C5
:102C2000B4010E94C4179B01AC01C701B6010E9408
:102C300044166B017C017A94D6CFC801DF91CF9105
:102C40001F910F91FF90EF90DF90CF90BF90AF90CA
:102C50009F908F907F906F905F904F9008950C940D
:102C600044150F931F93CF93DF93EC010E944415FB
:102C70008C01CE010E948D14800F911FDF91CF91A6
:102C80001F910F91089508955058BB27AA270ED081
:102C90006AC233D230F038D220F031F49F3F11F4C1
:102CA0001EF4F2C10EF4E095E7FBE8C1E92F7DD2F6
:102CB00080F3BA17620773078407950718F071F459
:102CC0009EF595C20EF4E0950B2EBA2FA02D0B01A8
:102CD000B90190010C01CA01A0011124FF27591B61
:102CE00099F0593F50F4503E68F11A16F040A22F67
:102CF000232F342F4427585FF3CF469537952795D8
:102D0000A795F0405395C9F77EF41F16BA0B620BD6
:102D1000730B840BBAF09150A1F0FF0FBB1F661F1D
:102D2000771F881FC2F70EC0BA0F621F731F841F60
:102D300048F4879577956795B795F7959E3F08F086
:102D4000B3CF9395880F08F09927EE0F9795879545
:102D500008959F939F77EEE389379E0720F4E8E775
:102D6000F0E0BAD109C04BD19058A2EA2AED3FE079
:102D700049EC5FE39BDFF7D10F9007FC9058089573
:102D8000BCD158F080E891E009F49EEFBDD128F065
:102D900040E851E059F45EEF09C076C128C2E92F3E
:102DA000E07803D268F3092E052AC1F32617370706
:102DB0004807590738F00E2E07F8E02569F0E0259E
:102DC000E0640AC0EF6307F8009407FADB01B90179
:102DD0009D01DC01CA01AD01EF934AD0C4D10AD0F4
:102DE0005F91552331F02BED3FE049E450FD49EC74
:102DF0004CCF0895DF93DD27B92FBF7740E85FE31D
:102E00001616170648075B0710F4D92FFBD19F93BE
:102E10008F937F936F93A8D2ECE8F0E038D1A3D1E1
:102E20002F913F914F915F9100D2DD2349F090584F
:102E3000A2EA2AED3FE049EC5FE3D0785D2736DF78
:102E4000DF9191C1F7D008F481E0089565D1E39551
:102E50009BC10CD088C158D140F04FD130F021F443
:102E60005F3F19F00BC15111C3C10EC19ED198F340
:102E70009923C9F35523B1F3951B550BBB27AA27FB
:102E800062177307840738F09F5F5F4F220F331F6D
:102E9000441FAA1FA9F333D00E2E3AF0E0E830D039
:102EA00091505040E695001CCAF729D0FE2F27D03C
:102EB000660F771F881FBB1F261737074807AB070A
:102EC000B0E809F0BB0B802DBF01FF2793585F4F7F
:102ED0002AF09E3F510568F0D1C08AC15F3FECF3F4
:102EE000983EDCF3869577956795B795F7959F5F44
:102EF000C9F7880F911D9695879597F90895E1E098
:102F0000660F771F881FBB1F621773078407BA07F6
:102F100020F0621B730B840BBA0BEE1F88F7E09551
:102F2000089504D06894B11163C1089546D188F022
:102F30009F5790F0B92F9927B751A0F0D1F0660FA5
:102F4000771F881F991F1AF0BA95C9F712C0B130C0
:102F500081F04DD1B1E008954AC1672F782F8827BD
:102F6000B85F39F0B93FCCF3869577956795B395FF
:102F7000D9F73EF490958095709561957F4F8F4F6E
:102F80009F4F0895E89409C097FB3EF49095809573
:102F9000709561957F4F8F4F9F4F9923A9F0F92F1F
:102FA00096E9BB279395F695879577956795B7959D
:102FB000F111F8CFFAF4BB0F11F460FF1BC06F5F83
:102FC0007F4F8F4F9F4F16C0882311F096E911C095
:102FD000772321F09EE8872F762F05C0662371F0B6
:102FE00096E8862F70E060E02AF09A95660F771FCA
:102FF000881FDAF7880F9695879597F90895DF93DC
:10300000CF931F930F938B01EC01E9EBF0E03FD0DE
:10301000AAD09801AE018B01EC0160E070E080E87D
:103020009FE332DE63D19801AE010F911F91CF91E2
:10303000DF91FBC0990F0008550FAA0BE0E8FEEFE7
:1030400016161706E807F907C0F012161306E4076C
:10305000F50798F0621B730B840B950B39F40A2665
:1030600061F0232B242B252B21F408950A2609F443
:10307000A140A6958FEF811D811D089597F99F6747
:1030800080E870E060E008959FEF80EC0895DF93A2
:10309000CF931F930F93FF92EF92DF927B018C01EE
:1030A000689405C0DA2EEF01C0D0FE01E894A59126
:1030B0002591359145915591AEF3EF01F7DDFE0174
:1030C0009701A801DA9479F7DF90EF90FF900F91C4
:1030D0001F91CF91DF9108959F938F937F936F936B
:1030E000FF93EF939B01AC0194D0EF91FF91CFDF61
:1030F0002F913F914F915F918CC000240A94161636
:10310000170618060906089500240A9412161306D5
:10311000140605060895B8CF50D0E8F3E894E0E02F
:10312000BB279F57F0F02AED3FE049EC06C0EE0FB9
:10313000BB0F661F771F881F28F0B23A620773071C
:10314000840728F0B25A620B730B840BE3959A95AF
:1031500072F7803830F49A95BB0F661F771F881F6F
:10316000D2F790480AC1092E0394000C11F4882369
:1031700052F0BB0F40F4BF2B11F460FF04C06F5F2F
:103180007F4F8F4F9F4F0895EF93E0FF06C0A2EA55
:103190002AED3FE049EC5FEB89DDE5DF0F9003941A
:1031A00001FC9058E1EEF0E097CF57FD9058440FA6
:1031B000551F59F05F3F71F04795880F97FB991F96
:1031C00061F09F3F79F08795089512161306140653
:1031D000551FF2CF4695F1DF08C0161617061806E0
:1031E000991FF1CF86957105610508940895E894BB
:1031F000BB2766277727CB0197F908951BDF08F4D3
:103200008FEF08959B01AC0160E070E080E89FE3E0
:1032100020CE0BD0A8CF71DF28F076DF18F09523F1
:1032200009F02CCF31CF1124E3CFBFDFA0F3959F5E
:10323000D1F3950F50E0551F629FF001729FBB279D
:10324000F00DB11D639FAA27F00DB11DAA1F649F49
:103250006627B00DA11D661F829F2227B00DA11DFC
:10326000621F739FB00DA11D621F839FA00D611D82
:10327000221F749F3327A00D611D231F849F600DA3
:10328000211D822F762F6A2F11249F5750408AF0DC
:10329000E1F088234AF0EE0FFF1FBB1F661F771F68
:1032A000881F91505040A9F79E3F510570F0E6CE1F
:1032B0009FCF5F3FECF3983EDCF38695779567955B
:1032C000B795F795E7959F5FC1F7FE2B880F911D86
:1032D0009695879597F908959F931EDF0F9007FCA9
:1032E000EE5F52CF11F40EF4CFCE45C066DFD0F3BF
:1032F0009923D9F3CEF39F57550B87FF4AD000246B
:10330000A0E640EA900180585695979528F4805C95
:10331000660F771F881F20F026173707480730F4FD
:10332000621B730B840B202931294A2BA695179415
:103330000794202531254A2758F7660F771F881FE5
:1033400020F026173707480730F4620B730B840B05
:10335000200D311D411DA09581F7B901842F915891
:10336000880F9695879508959B01AC0152CF62DE38
:10337000880B990B08959F3F31F0915020F4879569
:1033800077956795B795880F911D9695879597F9CD
:10339000089591505040660F771F881FD2F7089507
:1033A000A1E21A2EAA1BBB1BFD010DC0AA1FBB1F49
:1033B000EE1FFF1FA217B307E407F50720F0A21BBB
:1033C000B30BE40BF50B661F771F881F991F1A9428
:1033D00069F760957095809590959B01AC01BD0152
:1033E000CF010895EE0FFF1F0590F491E02D099491
:1033F000FC0188279927E89421912032E9F32930AC
:1034000010F02E30C8F32B3241F02D3239F468948D
:1034100004C00E94421A820F911D219120532A302C
:10342000C0F31EF4909581959F4F08954EE651E0AC
:103430000E941B1A0895FA01A191B081009719F416
:103440001097E1F0CD01DC01CD010D90002011F4C9
:10345000C00113C0FB012191222319F02015D9F7D7
:10346000F3CFFB012191201519F41E92119606C08D
:103470002223C1F70D900020A1F7D001FA01A193FA
:10348000B08308957AE0979F902D879F802D910DAE
:0834900011240895F894FFCF08
:103498000900060007000300040005002288733AAB
:1034A8007B690A38BD3786357B690A387BF5713AFE
:1034B8007B690AB8BD3786357B690AB81D588E3ACC
:1034C800EB93844189EF4BC3F5340AC17C0020009B
:1034D800000000000707DA06AF06B706CA06D906D5
:1034E80000000000CA1246144C1265125712A812A6
:0E34F8006E616E00696E66006F7666002E00D3
:00000001FF
