:100000000C9476000C949E000C949E000C949E0020
:100010000C949E000C949E000C949E000C949E00E8
:100020000C949E000C949E000C949E000C949E00D8
:100030000C949E000C949E000C949E000C949E00C8
:100040000C94DF080C949E000C94EB0B0C941D0C8C
:100050000C949E000C949E000C949E000C949E00A8
:100060000C94C3050C949E00084AD73B3BCE016E0E
:1000700084BCBFFDC12F3D6C74319ABD56833DDAFF
:100080003D00C77F11BED9E4BB4C3E916BAAAABE0E
:10009000000000803F000000000800020100000393
:1000A0000407000000000000000001020408102006
:1000B00040800102040810200102040810200404FA
:1000C0000404040404040202020202020303030300
:1000D000030300000000250028002B0000000000A2
:1000E000240027002A00CD01E1044D0C11241FBE7D
:1000F000CFEFD8E0DEBFCDBF11E0A0E0B1E0E4EC8F
:10010000F3E202C005900D92A639B107D9F723E0BA
:10011000A6E9B1E001C01D92AC30B207E1F710E0F2
:10012000CCEED0E004C02297FE010E948A11C63EA8
:10013000D107C9F70E94910C0C94E0110C940000B7
:10014000CF93DF93C0E0D1E060E070E088810E944F
:10015000AF0961E0809104010E94700A60E0809123
:1001600002010E94700A6091A4017091A50188812A
:10017000DF91CF910C94AF09CF93DF93C0E0D1E032
:1001800060E070E088810E94AF0960E08091040126
:100190000E94700A61E0809102010E94700A6091E1
:1001A000A4017091A5018881DF91CF910C94AF09D2
:1001B0004EEA57E461E67FE388E991E00E941F0779
:1001C000009751F0BC0188E991E00E94E207BC0170
:1001D0008FE692E00E94FB0C60E088E991E00E94CB
:1001E000DB07009751F0BC0188E991E00E94E2072B
:1001F000BC018FE692E00C94FB0C0895CF93DF9343
:1002000000D000D0CDB7DEB726E040E855E260E090
:1002100070E08FE692E00E94890B86EA91E00E94EE
:10022000A50461E0809100010E94370A61E080919D
:1002300004010E94370A61E0809102010E94370A9E
:10024000CE0101960E94F70689819A81AB81BC811B
:100250008093980190939901A0939A01B0939B0188
:100260000E94D8000F900F900F900F90DF91CF91C8
:1002700008958F929F92AF92BF92CF92DF92EF92AA
:10028000FF92CF93DF93CDB7DEB72C970FB6F894DC
:10029000DEBF0FBECDBF68E971E0CE0101960E94BE
:1002A0007F0829813A814B815C816D817E818F81BC
:1002B00098850E942A0F6B017C0120E030E0A901A3
:1002C0000E947D0F87FF0AC02BED3FE049EC50E410
:1002D000C701B6010E94B70E6B017C012BED3FE018
:1002E00049EC50E4C701B6010E94F110181654F40D
:1002F0002BED3FE049EC50E4C701B6010E94B60E79
:100300006B017C0121EE3EE245E652E4C701B601F5
:100310000E94FC104B015C0120E030E044E352E419
:100320000E94F11087FD0AC020E030E044E352E46F
:10033000C501B4010E94B60E6B017C0121EE3EE2C4
:1003400045E652E4C701B6010E94FC104B015C0176
:1003500020E030E044E352E40E947D0F87FF0AC0B2
:10036000A501940160E070E88DE993E40E94B60E67
:100370006B017C01C701B6012C960FB6F894DEBF65
:100380000FBECDBFDF91CF91FF90EF90DF90CF9068
:10039000BF90AF909F908F90089588E991E00C9462
:1003A000F7064F925F926F927F928F929F92AF92D9
:1003B000BF92CF92DF92EF92FF920F931F93CF9352
:1003C000DF93CDB7DEB7C456D1090FB6F894DEBFC0
:1003D0000FBECDBF0E943901AB01BC0140939C010F
:1003E00050939D0160939E0170939F0122E030E045
:1003F0008FE692E00E94B30E66E071E08FE692E035
:100400000E94DE0C4091A0015091A1016091A201D7
:100410007091A30122E030E08FE692E00E94B30EDB
:1004200066E071E08FE692E00E94DE0C6091A4012C
:100430007091A5014AE050E08FE692E00E94B00D75
:100440008FE692E00E94A60A892BC9F064E670E06C
:1004500080E090E00E944C098E010F5F1F4FE12C5D
:10046000F12C68018FE692E00E94A60A892B09F41C
:1004700097C183E6E816F10409F0ADC191C164E6C5
:1004800070E080E090E00E944C0940909C01509008
:100490009D0160909E0170909F018090A0019090BE
:1004A000A101A090A201B090A301A5019401C301F4
:1004B000B2010E94B60E6B017C0120E030E0A90180
:1004C0000E94F11018165CF420E030E040E85FE391
:1004D000C701B6010E947D0F87FF0BC013C020E04B
:1004E00030E040E85FEBC701B6010E94F11018163A
:1004F0004CF020E030E0A901C501B4010E947D0F5D
:1005000081110BC060E0809104010E94700A60E0DC
:10051000809102010E94700A69C120E030E0A901C7
:10052000C501B4010E94F11018160CF05FC120E063
:1005300030E044E353E4C501B4010E947D0F181676
:100540000CF454C120E030E0A901C301B2010E94C3
:10055000F11018160CF04AC120E030E044E353E4F7
:10056000C301B2010E947D0F18160CF43FC1A50112
:100570009401C301B2010E947D0F20E030E0A90187
:1005800087FF87C0C701B6010E94F11018165CF4FE
:1005900020E030E040E251E4C701B6010E94F110D2
:1005A00087FF0BC012C020E030E040E251ECC701F1
:1005B000B6010E947D0F181644F08FEF90E09093E3
:1005C000A5018093A4010E94BC002091A00130915C
:1005D000A1014091A2015091A30160919C017091F1
:1005E0009D0180919E0190919F010E94B60E6B012A
:1005F0007C0120E030E0A9010E94F11018169CF463
:1006000020E030E040E251E4C701B6010E947D0FD6
:1006100087FFECC0A701960160E070E080E291E402
:100620000E94B60E13C020E030E040E251ECC7015A
:10063000B6010E94F11018160CF0D8C020E030E08E
:1006400040E251E4C701B6010E94B70E20E030E05D
:1006500040E251E40E94810F9B01AC0160E070E038
:1006600080E89FE30E94B60E20E030E04BE153E4C7
:100670000E94FC1020E030E048EC52E40E94B70EEB
:100680000E94E90F7093A5016093A4010E94BC0031
:10069000ADC0C701B6010E94F11018165CF420E04D
:1006A00030E040E251E4C701B6010E94F11087FF3B
:1006B0000BC012C020E030E040E251ECC701B601AF
:1006C0000E947D0F181644F08FEF90E09093A501E3
:1006D0008093A4010E94A0002091A0013091A1016B
:1006E0004091A2015091A30160919C0170919D01E4
:1006F00080919E0190919F010E94B60E6B017C013A
:1007000020E030E0A9010E94F11018169CF420E0CE
:1007100030E040E251E4C701B6010E947D0F87FF3F
:1007200065C0A701960160E070E080E291E40E945C
:10073000B60E13C020E030E040E251ECC701B60134
:100740000E94F11018160CF051C020E030E040E299
:1007500051E4C701B6010E94B70E20E030E040E24C
:1007600051E40E94810F9B01AC0160E070E080E8E1
:100770009FE30E94B60E20E030E04BE153E40E947C
:10078000FC1020E030E048EC52E40E94B70E0E94DA
:10079000E90F7093A5016093A4010E94A00026C0F8
:1007A000F601EE0DFF1D108269E071E0C6010E94A6
:1007B000AC110E948E11BC01882777FD8095982F7F
:1007C0000E941C106093A0017093A1018093A2016C
:1007D0009093A3015ACEEFEFEE1AFE0A8FE692E055
:1007E0000E94BF0AF80181938F013CCECC59DF4FA4
:1007F0000FB6F894DEBF0FBECDBFDF91CF911F9132
:100800000F91FF90EF90DF90CF90BF90AF909F90AF
:100810008F907F906F905F904F9008958091D60158
:1008200090E02091D701821B910908952091D70172
:100830008091D601281750F4E22FF0E0E852FE4FE5
:10084000808190E02F5F2093D70108958FEF9FEF75
:100850000895E091D7018091D601E81730F4F0E0D7
:10086000E852FE4F808190E008958FEF9FEF08954A
:100870000895CF92DF92EF92FF920F931F93CF9341
:10088000DF937C01CB018A012091B201222389F000
:10089000EB016B01C40ED51ECC15DD0569F0699125
:1008A000D701ED91FC910190F081E02DC7010995F0
:1008B000F3CF642F0E949A05C801DF91CF911F9159
:1008C0000F91FF90EF90DF90CF900895CF93DF933B
:1008D0001F92CDB7DEB769832091B2012223D1F0F8
:1008E0002091B301203240F021E030E0FC0133835D
:1008F000228380E090E015C08091B401E82FF0E001
:10090000EB54FE4F998190838F5F8093B401809365
:10091000B30105C061E0CE0101960E949A0581E015
:1009200090E00F90DF91CF910895FC011382128225
:1009300048EE53E060E070E044835583668377833C
:100940008FE091E09183808308951092D7011092F7
:10095000D6011092B4011092B3010C94E504862FD5
:10096000413208F040E268ED71E00E940305109208
:10097000D7018093D601089521E00C94AF0481E063
:100980008093B2016093D5011092B4011092B3012B
:1009900008950C94BF040F93062F21E04091B301FA
:1009A00065EB71E08091D5010E9447051092B4017A
:1009B0001092B3011092B2010F91089561E00C946E
:1009C000CB0486EA91E00C9495041092650281E0D4
:1009D000809363021092620261E082E10E94700AD9
:1009E00061E083E10E94700AE9EBF0E080818E7F94
:1009F000808380818D7F808388E48093B80085E444
:100A00008093BC000895413208F03FC09091650288
:100A10009111FCCF91E090936502209363022FEF38
:100A20002093F80110923D02240F20933C029093F2
:100A3000640290916402880F892B809364028091F4
:100A40006202813041F410926202809164028093CC
:100A5000BB0085EC01C085EE8093BC0080916502EF
:100A60008130E1F380913D02841710F440913D0202
:100A70002EE332E0FB01D9018A2F821B841718F480
:100A80008D918193F9CF842F089580E008950F937D
:100A9000413208F046C0909165029111FCCF92E07E
:100AA00090936502009363029FEF9093F801109278
:100AB0003D0240933C02FB016EE372E0DB019A2FA2
:100AC000961B941718F491919D93F9CF109264029C
:100AD00090916402880F892B809364028091620256
:100AE000813041F410926202809164028093BB00D5
:100AF00085EC01C085EE8093BC00222321F080911B
:100B000065028230E1F38091F8018F3F61F08091BE
:100B1000F801803251F08091F801803341F483E094
:100B200007C081E005C080E003C082E001C084E02E
:100B30000F910895613298F420916502243089F470
:100B400060931A02FC018CE192E0DC012A2F281B41
:100B5000261718F421912D93F9CF80E0089581E0B4
:100B6000089582E0089585ED8093BC008091BC00DB
:100B700084FDFCCF10926502089585EC8093BC0043
:100B80001092650208951F920F920FB60F921124D2
:100B90002F933F934F935F936F937F938F939F9385
:100BA000AF93BF93EF93FF938091B900887F803616
:100BB00009F49CC068F5883209F45BC090F4803178
:100BC00009F454C038F4882309F4F5C0883009F4D6
:100BD0004DC0F5C0883109F44CC0803209F45DC0C5
:100BE000EEC0803409F468C048F4803309F455C07D
:100BF000883309F0E4C08093F801A8C0803509F477
:100C00004FC0883509F45DC0883409F0D8C0D5C01C
:100C1000883909F4C6C0A8F4883709F467C038F4E5
:100C2000883609F463C0803709F460C0C8C08838CA
:100C300009F4B7C0803909F45FC0803809F0BFC03B
:100C40005BC0803B09F485C038F4803A09F466C083
:100C5000883A09F47EC0B3C0803C09F4A6C0883C41
:100C600009F4A3C0883B09F489C0A9C0809164023B
:100C700010C090913D0280913C02981770F5E09170
:100C80003D0281E08E0F80933D02F0E0E25CFD4F7B
:100C900080818093BB0085EC85C08093F8018DC076
:100CA000E0913D0281E08E0F80933D028091BB0078
:100CB000F0E0E25CFD4F808390913D0280913C0228
:100CC0006DC0E0913D0281E08E0F80933D028091E6
:100CD000BB00F0E0E25CFD4F8083809163028111F4
:100CE0006CC081E08093620284EA60C083E08093FC
:100CF00065021092F901CFCF8091F901803208F09E
:100D000050C0E091F90181E08E0F8093F90180914C
:100D1000BB00F0E0E650FE4F8083BDCF8091F9012B
:100D2000803230F4E091F901F0E0E650FE4F10829D
:100D30000E94B3056091F90170E0E0915E02F091CC
:100D40005F028AEF91E009951092F9010E94BD05BA
:100D500036C084E08093650210921B0210921A0242
:100D6000E0916002F0916102099580911A0281116F
:100D700005C081E080931A0210921C02E0911B02D0
:100D800081E08E0F80931B02F0E0E45EFD4F8081D6
:100D90008093BB0090911B0280911A02981708F46F
:100DA0007ACF85E88093BC000AC085EC8093BC00B4
:100DB0001092650204C01092F8010E94B305FF91E1
:100DC000EF91BF91AF919F918F917F916F915F91C3
:100DD0004F913F912F910F900FBE0F901F9018953C
:100DE000DC01ED91FC910190F081E02D099440E04F
:100DF00050E060E87FE3FC014083518362837383AA
:100E000008950F931F93CF93DF93EB018A016EE157
:100E100070E086EA91E00E94C904BE0186EA91E092
:100E20000E94F006B80186EA91E00E94F00686EA88
:100E300091E0DF91CF911F910F910C94DE04CF923E
:100E4000DF92EF92FF92CF93DF93EC016A017B0177
:100E50002EEA37E441E65FE3C701B6010E947D0F49
:100E600081110AC088E491EEAAE3BFE388839983E5
:100E7000AA83BB8340E08FC026E636E646EA5FE3FE
:100E8000C701B6010E947D0F81110AC08FE195E86C
:100E9000ABE6BFE388839983AA83BB8341E07BC031
:100EA00023E333E343EF5FE3C701B6010E947D0F05
:100EB00081110AC086EF98E2ACE9BFE38883998389
:100EC000AA83BB8342E067C020E030E040E250E408
:100ED000C701B6010E947D0F81110AC08CE59FE811
:100EE000A2ECBFE388839983AA83BB8343E053C00A
:100EF00020E030E040E850E4C701B6010E947D0FD9
:100F000081110AC08EEA97E4A1E1B0E48883998355
:100F1000AA83BB8344E03FC026E636E646E950E4B8
:100F2000C701B6010E947D0F81110AC08AE097EDCA
:100F3000A3E2B0E488839983AA83BB8345E02BC0F6
:100F400023E333E343EB50E4C701B6010E947D0F76
:100F500081110AC085E89BEEA1E4B0E488839983FF
:100F6000AA83BB8346E017C02AE939E941E051E48E
:100F7000C701B6010E947D0F81110AC083E393E38C
:100F8000ABE8B0E488839983AA83BB8347E003C0BE
:100F900081E090E009C04295440F407E50E061E05E
:100FA00070E0CE010E940107DF91CF91FF90EF909A
:100FB000DF90CF900895462F50E062E070E00E94ED
:100FC000010708958BE191E008959F92AF92BF923F
:100FD000CF92DF92EF92FF920F931F93CF93DF9305
:100FE000CDB7DEB77B018A01ADB6BEB66EE170E06B
:100FF00086EA91E00E94C904B70186EA91E00E9466
:10100000F00686EA91E00E94DE046EE170E086EA76
:1010100091E00E94C904A8016EE170E086EA91E0C7
:101020000E94BC048DB79EB7801B910B0FB6F8943D
:101030009EBF0FBE8DBF01967C0186EA91E00E94A3
:101040000E046C018017910781F4912C092D10E09A
:101050000C151D0554F486EA91E00E941604F70170
:10106000E00FF11F80839394F1CF86EA91E00E9414
:10107000DE04C7010FB6F894BEBE0FBEADBEDF9151
:10108000CF911F910F91FF90EF90DF90CF90BF9085
:10109000AF909F900895CF93DF9300D000D000D001
:1010A000CDB7DEB746E050E063E070E00E94E507B0
:1010B000FC01628170E0762F66278381682B448172
:1010C00050E0542F44278581482B208130E0322F77
:1010D00022278181282B3A8329835C834B837E835B
:1010E0006D833A815C817E8180E090E026960FB628
:1010F000F894DEBF0FBECDBFDF91CF910895CF92A0
:10110000DF92EF92FF920F931F93CF93DF9300D064
:1011100000D000D0CDB7DEB78C017B01CB010E949F
:101120004B0829833A834B835C836D837E83F7016D
:10113000C080D180E280F38069817A81882777FD41
:101140008095982F0E941C10A70196010E94FC1008
:10115000F80160837183828393836D817E81882708
:1011600077FD8095982F0E941C10A70196010E9480
:10117000FC10F80160877187828793876B817C817F
:10118000882777FD8095982F0E941C10A701960153
:101190000E94FC10F8016483758386839783C801DD
:1011A00026960FB6F894DEBF0FBECDBFDF91CF916C
:1011B0001F910F91FF90EF90DF90CF9008951F92B5
:1011C0000F920FB60F9211242F933F938F939F93FB
:1011D000AF93BF938091670290916802A0916902DA
:1011E000B0916A023091660223E0230F2D3720F47C
:1011F0000196A11DB11D05C026E8230F0296A11D71
:10120000B11D209366028093670290936802A093B9
:101210006902B0936A0280916B0290916C02A09176
:101220006D02B0916E020196A11DB11D80936B02FB
:1012300090936C02A0936D02B0936E02BF91AF9138
:101240009F918F913F912F910F900FBE0F901F9004
:1012500018953FB7F89480916B0290916C02A09121
:101260006D02B0916E0226B5A89B05C02F3F19F004
:101270000196A11DB11D3FBF6627782F892F9A2F98
:10128000620F711D811D911D42E0660F771F881F3F
:10129000991F4A95D1F70895CF92DF92EF92FF926E
:1012A000CF93DF936B017C010E942909EB01C114EC
:1012B000D104E104F10489F00E94B50E0E942909CD
:1012C0006C1B7D0B683E734090F381E0C81AD10817
:1012D000E108F108C851DC4FEACFDF91CF91FF90D0
:1012E000EF90DF90CF900895789484B5826084BDAC
:1012F00084B5816084BD85B5826085BD85B581601A
:1013000085BDEEE6F0E0808181608083E1E8F0E079
:101310001082808182608083808181608083E0E8A8
:10132000F0E0808181608083E1EBF0E08081846087
:101330008083E0EBF0E0808181608083EAE7F0E089
:1013400080818460808380818260808380818160ED
:1013500080838081806880831092C10008951F93EC
:10136000CF93DF93182FEB0161E00E94370A20979B
:1013700011F460E004C0CF3FD10539F461E0812F62
:10138000DF91CF911F910C94700AE12FF0E0EA56A3
:10139000FF4FE491E330F9F048F4E130B9F0E23086
:1013A000A1F584B5806284BDC8BD34C0E730E9F0E2
:1013B000E83019F1E43049F5809180008062809333
:1013C0008000D0938B00C0938A0024C084B58068CD
:1013D00084BDC7BD1FC0809180008068809380005D
:1013E000D0938900C093880015C08091B0008068B8
:1013F0008093B000C093B3000DC08091B0008062B4
:101400008093B000C093B40005C0C038D1050CF083
:10141000B5CFAFCFDF91CF911F910895833081F089
:1014200028F4813099F08230A1F008958730A9F036
:101430008830B9F08430D1F4809180008F7D03C072
:10144000809180008F7780938000089584B58F7796
:1014500002C084B58F7D84BD08958091B0008F77E0
:1014600003C08091B0008F7D8093B0000895CF932A
:10147000DF9390E0FC01E655FF4F2491FC01E2541C
:10148000FF4F8491882349F190E0880F991FFC0158
:10149000E452FF4FA591B4918E529F4FFC01C5912C
:1014A000D4919FB7611108C0F8948C912095822344
:1014B0008C93888182230AC0623051F4F8948C9115
:1014C000322F309583238C938881822B888304C0AC
:1014D000F8948C91822B8C939FBFDF91CF910895CC
:1014E0000F931F93CF93DF931F92CDB7DEB7282FB3
:1014F00030E0F901EA56FF4F8491F901E655FF4FBC
:101500001491F901E254FF4F04910023C9F088239C
:1015100021F069830E940E0A6981E02FF0E0EE0F4E
:10152000FF1FEE52FF4FA591B4919FB7F8948C9195
:10153000611103C01095812301C0812B8C939FBF43
:101540000F90DF91CF911F910F910895FC01818D34
:10155000228D90E0805C9F4F821B91098F739927A9
:101560000895FC01918D828D981731F0828DE80FDE
:10157000F11D858D90E008958FEF9FEF0895FC0198
:10158000918D828D981761F0828DDF01A80FB11DBA
:101590005D968C91928D9F5F9F73928F90E00895DE
:1015A0008FEF9FEF089583E49CE0892B49F080E062
:1015B00090E0892B29F00E94430C81110C940000CB
:1015C0000895FC01848DDF01A80FB11DA35ABF4F00
:1015D0002C91848D90E001968F739927848FA68932
:1015E000B7892C93A089B1898C9180648C93938D59
:1015F000848D981306C00288F389E02D80818F7D49
:1016000080830895CF93DF93EC01888D8823C9F000
:10161000EA89FB89808185FD05C0A889B9898C91FB
:1016200086FD0FC00FB607FCF5CF808185FFF2CF96
:10163000A889B9898C9185FFEDCFCE010E94E10A7E
:10164000E7CFDF91CF910895CF92DF92FF920F9372
:101650001F93CF93DF931F92CDB7DEB76C01DC01F0
:101660005B969C915B975C968C915C97981307C0F6
:101670005096ED91FC915197808185FD32C0F60125
:10168000038D10E00F5F1F4F0F731127F02EF6012F
:10169000848DF81211C00FB607FCF9CFD601509611
:1016A000ED91FC915197808185FFF1CFC60169834F
:1016B0000E94E10A6981EBCF838DE80FF11DE35AA7
:1016C000FF4F6083D6015B960C935B975296ED912A
:1016D000FC91539780818062808381E058968C933F
:1016E0000DC0D6015696ED91FC91579760835096A8
:1016F000ED91FC91519780818064808381E090E03E
:101700000F90DF91CF911F910F91FF90DF90CF90BD
:101710000895BF92CF92DF92EF92FF92CF93DF9323
:10172000EC016A017B01B22EE889F98982E08083AD
:10173000411581EE580761057105A1F060E079E07F
:101740008DE390E0A70196010E94661121503109B6
:10175000410951095695479537952795211580E1FF
:10176000380798F0E889F989108260E874E88EE11A
:1017700090E0A70196010E946611215031094109AC
:1017800051095695479537952795EC85FD8530830A
:10179000EE85FF852083188EEC89FD89B082EA8969
:1017A000FB89808180618083EA89FB8980818860F0
:1017B0008083EA89FB89808180688083EA89FB894C
:1017C00080818F7D8083DF91CF91FF90EF90DF90BC
:1017D000CF90BF9008951F920F920FB60F921124D1
:1017E0002F938F939F93EF93FF93E0917F02F0915C
:1017F00080028081E0918502F091860282FD12C014
:101800009081809188028F5F8F7320918902821767
:1018100051F0E0918802F0E0E159FD4F958F8093FF
:10182000880201C08081FF91EF919F918F912F914C
:101830000F900FBE0F901F9018951F920F920FB62A
:101840000F9211242F933F934F935F936F937F9346
:101850008F939F93AF93BF93EF93FF938FE692E0A5
:101860000E94E10AFF91EF91BF91AF919F918F91FB
:101870007F916F915F914F913F912F910F900FBE8C
:101880000F901F9018958FE692E00E94A60A21E023
:10189000892B09F420E0822F089510927202109291
:1018A000710288EE93E0A0E0B0E080937302909321
:1018B0007402A0937502B09376028CE791E0909346
:1018C000700280936F0285EC90E090937C0280938D
:1018D0007B0284EC90E090937E0280937D0280EC0A
:1018E00090E09093800280937F0281EC90E090934F
:1018F00082028093810282EC90E090938402809334
:10190000830286EC90E09093860280938502109289
:1019100088021092890210928A0210928B02089516
:1019200008950E9474090E94900C0E94FE00C3ED6D
:10193000DAE00E94D1012097E1F30E94D30AF9CFA7
:10194000CF92DF92EF92FF920F931F93CF93DF938B
:101950006C017A01EB01E60EF71E00E010E0CE15F7
:10196000DF0561F06991D601ED91FC910190F08164
:10197000E02DC6010995080F191FF1CFC801DF91AD
:10198000CF911F910F91FF90EF90DF90CF9008952E
:101990006115710581F0DB010D900020E9F7AD01C3
:1019A00041505109461B570BDC01ED91FC9102801F
:1019B000F381E02D099480E090E008950C94C80C28
:1019C000DC01ED91FC910190F081E02D09940F93E1
:1019D0001F93CF93DF93EC016DE00E94E00C8C012C
:1019E0006AE0CE010E94E00C800F911FDF91CF9141
:1019F0001F910F9108950F931F93CF93DF93EC01E5
:101A00000E94C80C8C01CE010E94E70C800F911F30
:101A1000DF91CF911F910F9108958F929F92AF9276
:101A2000BF92CF92DF92EF92FF920F931F93CF93CB
:101A3000DF93CDB7DEB7A1970FB6F894DEBF0FBE28
:101A4000CDBF7C01C42EE52FCB01D22E19A221E0FF
:101A50002D1510F02AE0D22E8E010F5D1F4F8D2C18
:101A6000912CA12CB12C6C2D7E2FA50194010E94EC
:101A700066118C2DD29E80191124015011098A30D3
:101A800014F4805D01C0895CF80180832115310563
:101A90004105510521F0C22EE32FCA01E4CFB80160
:101AA000C7010E94C80CA1960FB6F894DEBF0FBE06
:101AB000CDBFDF91CF911F910F91FF90EF90DF90FD
:101AC000CF90BF90AF909F908F900895CF92DF926C
:101AD000EF92FF920F931F93CF93DF93EC016A0174
:101AE0007B012115310579F4E881F9810190F081BC
:101AF000E02D642FDF91CF911F910F91FF90EF9018
:101B0000DF90CF9009942A303105E9F477FF1AC0AD
:101B10006DE20E94E00C8C0144275527BA014C1954
:101B20005D096E097F092AE0CE010E940D0D800F2C
:101B3000911FDF91CF911F910F91FF90EF90DF9058
:101B4000CF9008952AE0B701A601CE01DF91CF9191
:101B50001F910F91FF90EF90DF90CF900C940D0D9F
:101B60000F931F93CF93DF93EC019A01AB0166278C
:101B700057FD6095762F0E94660D8C01CE010E9464
:101B8000E70C800F911FDF91CF911F910F91089566
:101B90004F925F926F927F928F929F92AF92BF927D
:101BA000CF92DF92EF92FF920F931F93CF93DF9329
:101BB000EC016A017B01B22E9A01AB01C701B601AB
:101BC0000E946211882319F068E871E027C026019D
:101BD0003701E89477F82FEF3FEF4FE75FE7C30156
:101BE000B2010E94621181110DC02FEF3FEF4FE74C
:101BF0005FE7C301B2010E947D0F18161CF46CE868
:101C000071E00CC02FEF3FEF4FE75FE4C701B60173
:101C10000E94F1101816ACF460E971E0CE01DF917A
:101C2000CF911F910F91FF90EF90DF90CF90BF90D9
:101C3000AF909F908F907F906F905F904F900C949B
:101C4000C80C2FEF3FEF4FE75FECC701B6010E94D2
:101C50007D0F87FDE1CF20E030E0A901C701B6018B
:101C60000E947D0F87FF0AC06DE2CE010E94E00C4A
:101C70008C01F7FAF094F7F8F09402C000E010E05D
:101C8000A12C60E070E080E09FE3AB1441F020E025
:101C900030E040E251E40E94810FA394F6CF9B0113
:101CA000AC01C701B6010E94B70E6B017C010E9416
:101CB000EE0F2B013C010E941A109B01AC01C701E1
:101CC000B6010E94B60E6B017C012AE0B301A201AD
:101CD000CE010E940D0D080F191FBB2039F064E9D9
:101CE00071E0CE010E94C80C080F191F7B2C7720D1
:101CF00041F120E030E040E251E4C701B6010E942A
:101D0000FC106B017C010E94E90F4B01AA2497FC97
:101D1000A094BA2C2AE030E0B501A401CE010E94C3
:101D2000660D080F191FC501B4010E941C109B010C
:101D3000AC01C701B6010E94B60E6B017C017A941A
:101D4000D6CFC801DF91CF911F910F91FF90EF90F7
:101D5000DF90CF90BF90AF909F908F907F906F90CB
:101D60005F904F9008950C94C80D08955058BB276C
:101D7000AA270ED0FCC1EDD130F0F2D120F031F421
:101D80009F3F11F41EF4BDC10EF4E095E7FBB3C113
:101D9000E92FFED180F3BA1762077307840795070E
:101DA00018F071F49EF516C20EF4E0950B2EBA2FC2
:101DB000A02D0B01B90190010C01CA01A001112451
:101DC000FF27591B99F0593F50F4503E68F11A16FD
:101DD000F040A22F232F342F4427585FF3CF46958E
:101DE00037952795A795F0405395C9F77EF41F16B0
:101DF000BA0B620B730B840BBAF09150A1F0FF0F7A
:101E0000BB1F661F771F881FC2F70EC0BA0F621F65
:101E1000731F841F48F4879577956795B795F79555
:101E20009E3F08F0B3CF9395880F08F09927EE0FE7
:101E30009795879508958DD158F080E891E009F441
:101E40009EEF8ED128F040E851E059F45EEF09C0D2
:101E500058C1C0C1E92FE0789BD168F3092E052A4B
:101E6000C1F3261737074807590738F00E2E07F831
:101E7000E02569F0E025E0640AC0EF6307F800940C
:101E800007FADB01B9019D01DC01CA01AD01EF9345
:101E900047D06DD10AD05F91552331F02BED3FE053
:101EA00049E450FD49EC63CF0895DF93DD27B92F56
:101EB000BF7740E85FE31616170648075B0710F484
:101EC000D92F93D19F938F937F936F93F8D1E8E6A7
:101ED000F0E01AD14CD12F913F914F915F9198D161
:101EE000DD2349F09058A2EA2AED3FE049EC5FE398
:101EF000D0785D274DDFDF913AC1D9D008F481E079
:101F000008950CD034C12CD140F023D130F021F40D
:101F10005F3F19F0F0C051115EC1F3C039D198F3A1
:101F20009923C9F35523B1F3951B550BBB27AA275A
:101F300062177307840738F09F5F5F4F220F331FCC
:101F4000441FAA1FA9F333D00E2E3AF0E0E830D098
:101F500091505040E695001CCAF729D0FE2F27D09B
:101F6000660F771F881FBB1F261737074807AB0769
:101F7000B0E809F0BB0B802DBF01FF2793585F4FDE
:101F80002AF09E3F510568F0B6C025C15F3FECF3D3
:101F9000983EDCF3869577956795B795F7959F5FA3
:101FA000C9F7880F911D9695879597F90895E1E0F7
:101FB000660F771F881FBB1F621773078407BA0756
:101FC00020F0621B730B840BBA0BEE1F88F7E095B1
:101FD000089504D06894B111FEC00895E1D088F04E
:101FE0009F5790F0B92F9927B751A0F0D1F0660F05
:101FF000771F881F991F1AF0BA95C9F712C0B13020
:1020000081F0E8D0B1E00895E5C0672F782F8827E8
:10201000B85F39F0B93FCCF3869577956795B3955E
:10202000D9F73EF490958095709561957F4F8F4FCD
:102030009F4F0895E89409C097FB3EF490958095D2
:10204000709561957F4F8F4F9F4F9923A9F0F92F7E
:1020500096E9BB279395F695879577956795B795FC
:10206000F111F8CFFAF4BB0F11F460FF1BC06F5FE2
:102070007F4F8F4F9F4F16C0882311F096E911C0F4
:10208000772321F09EE8872F762F05C0662371F015
:1020900096E8862F70E060E02AF09A95660F771F29
:1020A000881FDAF7880F9695879597F90895990F05
:1020B0000008550FAA0BE0E8FEEF16161706E80712
:1020C000F907C0F012161306E407F50798F0621B33
:1020D000730B840B950B39F40A2661F0232B242B08
:1020E000252B21F408950A2609F4A140A6958FEF27
:1020F000811D811D089597F99F6780E870E060E079
:1021000008959FEF80EC0895DF93CF931F930F9373
:10211000FF92EF92DF927B018C01689405C0DA2E6A
:10212000EF0176D0FE01E894A59125913591459176
:102130005591AEF3EF012CDEFE019701A801DA9470
:1021400079F7DF90EF90FF900F911F91CF91DF9182
:10215000089500240A94161617061806090608950D
:1021600000240A9412161306140605060895092E73
:102170000394000C11F4882352F0BB0F40F4BF2BE2
:1021800011F460FF04C06F5F7F4F8F4F9F4F089522
:1021900057FD9058440F551F59F05F3F71F0479518
:1021A000880F97FB991F61F09F3F79F087950895FD
:1021B000121613061406551FF2CF4695F1DF08C01C
:1021C000161617061806991FF1CF86957105610539
:1021D00008940895E894BB2766277727CB0197F9E1
:1021E000089565DF08F48FEF08959B01AC0160E06E
:1021F00070E080E89FE385CE0BD0B9CFAADF28F04E
:10220000AFDF18F0952309F076CF7BCF1124E3CF11
:10221000BFDFA0F3959FD1F3950F50E0551F629F4C
:10222000F001729FBB27F00DB11D639FAA27F00D2F
:10223000B11DAA1F649F6627B00DA11D661F829F56
:102240002227B00DA11D621F739FB00DA11D621F3B
:10225000839FA00D611D221F749F3327A00D611D58
:10226000231F849F600D211D822F762F6A2F11243A
:102270009F5750408AF0E1F088234AF0EE0FFF1F8D
:10228000BB1F661F771F881F91505040A9F79E3FC4
:10229000510570F030CF9FCF5F3FECF3983EDCF3F9
:1022A000869577956795B795F795E7959F5FC1F701
:1022B000FE2B880F911D9695879597F908959B01A0
:1022C000AC019ACFF4DE880B990B0895A1E21A2E87
:1022D000AA1BBB1BFD010DC0AA1FBB1FEE1FFF1FCA
:1022E000A217B307E407F50720F0A21BB30BE40B1A
:1022F000F50B661F771F881F991F1A9469F7609561
:102300007095809590959B01AC01BD01CF0108951A
:10231000EE0FFF1F0590F491E02D0994FC01882732
:102320009927E89421912032E9F3293010F02E30DA
:10233000C8F32B3241F02D3239F4689404C00E9466
:10234000D811820F911D219120532A30C0F31EF421
:10235000909581959F4F089546E951E00E94B111F3
:102360000895FA01A191B081009719F41097E1F056
:10237000CD01DC01CD010D90002011F4C00113C08E
:10238000FB012191222319F02015D9F7F3CFFB018E
:102390002191201519F41E92119606C02223C1F72F
:1023A0000D900020A1F7D001FA01A193B083089508
:1023B0007AE0979F902D879F802D910D112408958D
:0423C000F894FFCFBF
:1023C4000300040005000909002000000000006665
:1023D4000439040E04160429043804456E74657225
:1023E4006564207363616C6520776173206E6F741C
:1023F4002076616C69642C2076616C696420676165
:102404007573732076616C756573206172653A200B
:10241400302E38382C20312E332C20312E392C20DC
:10242400322E352C20342E302C20342E372C2035CF
:102434002E362C20382E310000000000240BA00C76
:10244400A60ABF0AB10A020B6E616E00696E6600CD
:062454006F7666002E0009
:00000001FF
